:020000040000FA
:060800006FEF19F0120079
:060808009FEF16F0120044
:06081800C6EF16F012000D
:06082A0001003033000064
:080830008E0000000B00000027
:0808380025EC0FF0A66AFE0E8C
:10084000DB50A96EA680A8502AEF0FF025EC0FF020
:10085000FE0EDB50A96EFD0EDB50A86E040EA66ED8
:10086000550EA76EAA0EA76EA682A6B2FED72AEFD5
:100870000FF0FE0EE66EE0DFE552AC0802E1938E6B
:1008800002D0818E939EFD0EE66ED6DFE55269089A
:1008900006E1938C948C948E93888B8612008A9CAC
:1008A000939C949C949E938882A08B96120025EC36
:1008B0000FF0040EE126766A7E6A7F6A7E8C7F8660
:1008C000F18E8A9C939C8B9C949C8B9E949E938887
:1008D000818E939E9484938ABA8EBA8ABA98F80EBF
:1008E000C0140609C06EC70EC0142809C06EC1909E
:1008F000C192C194C186C280C08E94808B9694961A
:10090000B96A8B989498040ECA6ECB6ABE6A2C0E94
:10091000BD6E8B9A949ADAEC18F09D96C69AC79E93
:10092000C78CC698C690C692C694C696D08EF28ED4
:10093000F28C8B96818E939EE80EE66E030EE66E29
:10094000E66AE66AB4EC15F0E552E552E552E55286
:10095000938E8B86DE6ADE6ADE6ADD6ADD52DD52E8
:10096000D9CFE9FFDACFEAFF200EEE5CA10EEE58F8
:10097000070EEE58000EEE580CE282B00AD0D9CF26
:10098000E9FFDACFEAFFEE2A000EEE22EE22EE2297
:10099000E7D7939E6EDF020EB96E040EE15C02E2B1
:1009A000E16AE552E16E2AEF0FF01E0EE66E010ECF
:1009B000E66E1BEC10F0E552E5520001926B200E42
:1009C000E66E700EE66E020E1AEC0FF0F3CF8EF0AC
:1009D000F4CF8FF0200EE66E900EE66E020E1AEC4B
:1009E0000FF0F3CF90F0F4CF91F00001986B00017D
:1009F000300EA56F020EA66F1200200E0001E76EEA
:100A00006019E8AE02D0E73402D0E750605D05E33C
:100A10006450020B01E0120001D81200D9CFE6FFAA
:100A2000E1CFD9FF160EE12600019251E96EEA6A84
:100A3000D890E936EA368E0EE926000EEA22EE500C
:100A4000ED1002E1000E13D000019251E96EEA6A46
:100A5000D890E936EA368E0EE926000EEA22EE50EC
:100A6000EFCFEAFFE96EEF50800B01E0010E0009C5
:100A700002E010EF0FF0DF6A00019251200DF3CF7A
:100A8000A3F0F4CFA4F0700E0001A327020E000122
:100A9000A42300019251E96EEA6AD890E936EA3659
:100AA0008E0EE926000EEA22EE50EFCFEAFFE96E45
:100AB000EE52EFCF93F0A3C0E9FFA4C0EAFFEF50DE
:100AC000E76E150EE7CFDBFF00010A0EAB6F150EC8
:100AD000DB50FF0A02E16FEF0EF0FA0A02E12EEF9F
:100AE0000EF0010A02E1EDEF0DF0650A02E1CEEF32
:100AF0000DF0010A02E1AFEF0DF0300A02E1A0EFC4
:100B00000DF0190A02E193EF0DF00E0A02E120EF59
:100B10000DF0080A02E1A2EF09F0090A01E1AAD0EA
:100B2000020A01E1A7D0010A01E1A4D0060A74E09B
:100B3000010A58E0020A12E0710A02E085EF0EF0A5
:100B40000001320EAB6FA5C0E9FFA6C0EAFF150E8B
:100B5000DBCFEFFF010EDF6E87EF0EF0A5C0E9FFE0
:100B6000A6C0EAFF150EDBCFEFFF1F0EE66EE66AAA
:100B7000BE0E196E320E1A6E1B6A19C0E6FF1AC03D
:100B8000E6FF1BC0E6FF010E00011D6AA5251C6ED5
:100B9000A6511D221CC0E6FF1DC0E6FFB4EC17F0F5
:100BA0001E6E070EE15E1E501F0EE66EE66AA5C0C1
:100BB000E6FFA6C0E6FF56EC16F0E552E552E55218
:100BC000E552E66EA5C0E9FFA6C0EAFFEE521E0E92
:100BD000E926000EEA22E552E750EF6E200EDF6EA6
:100BE00087EF0EF0A3C0E9FFA4C0EAFFEE52EF507A
:100BF000010B02E08B8C01D08B9CA3C0E9FFA4C049
:100C0000EAFFEE52EF50020B02E08B8E01D08B9E7A
:100C10008A8C8A9C87EF0EF0A5C0E9FFA6C0EAFF88
:100C2000150EDBCFEFFFA5C0E9FFA6C0EAFFEE522D
:100C30008150100B02E0EF8401D0EF94A3C0E9FFD4
:100C4000A4C0EAFFEE52EF50010B02E08B8C01D002
:100C50008B9CA3C0E9FFA4C0EAFFEE52EF50020B49
:100C600002E08B8E01D08B9E8A8C8A9C020EDF6EF6
:100C700087EF0EF00001AB69A3C0E9FFA4C0EAFF53
:100C8000EE52070EEECFDBFF080EEECFDBFF090EB4
:100C9000EECFDBFF0A0EEECFDBFF070EDBCF19F046
:100CA000080EDBCF1AF0090EDBCF1BF00A0EDBCFEC
:100CB0001CF019501A101B101C1002E187EF0EF0E7
:100CC000070EDBCF04F0080EDBCF05F0090EDBCFFB
:100CD00006F00A0EDBCF07F0070E0426000E0522F1
:100CE000000E0622000E0722080E096E0A6A0B6A21
:100CF0000C6A04EC19F00B0E04C0DBFF0C0E05C0EF
:100D0000DBFF0D0E06C0DBFF0E0E07C0DBFF8A9C6B
:100D10008B9CD950070FE96EDACFEAFFD880080E16
:100D2000EE54000EEE54000EEE54000EEE5403E2AC
:100D3000938CC68A939C150EDB50440805E0150E73
:100D4000DB50460801E07BD0200EE66E0001925198
:100D5000200DF3CF1BF0F4CF1CF0700E1B26020EFB
:100D60001C221BC0E6FF1CC0E6FFE66A010EE66E11
:100D70003FEC10F01D6E050EE15E1D50F3CF19F033
:100D8000F4CF1AF000019251E96EEA6AD890E93680
:100D9000EA368E0EE926000EEA2219C0EEFF1AC0CE
:100DA000EDFF0001927100019251E96EEA6AD8905C
:100DB000E936EA368E0EE926000EEA22EE50ED10F4
:100DC00002E1000E13D000019251E96EEA6AD89058
:100DD000E936EA368E0EE926000EEA22EE50EFCF13
:100DE000EAFFE96EEF50800B01E0010E000901E01F
:100DF000DAD700019251E96EEA6AD890E936EA360C
:100E00008E0EE926000EEA22EE50EFCFEAFFE96EE1
:100E1000EE52EFCF93F000019251200DF3CFA3F0EB
:100E2000F4CFA4F0700E0001A327020E0001A4234A
:100E3000010EA3C0DBFF020EA4C0DBFF0BD0450EEA
:100E4000F36E150EF3CFDBFF450E000903E0000142
:100E5000200E936F030EA5C0DBFF040EA6C0DBFFC0
:100E600093C019F01A6A1B6A1C6AD9500B0FE96EFD
:100E7000DACFEAFFEE50195CEE501A58EE501B58CC
:100E8000EE501C5801E388D193C019F01A6A1B6A0E
:100E90001C6AD9500B0FE96EDACFEAFF1950EE5EEB
:100EA0001A50EE5A1B50EE5A1C50EE5A0001AB512C
:100EB00002E10001AB6993C014F0E9CF15F0EACF6D
:100EC00016F0E1CF17F0E2CF18F0150EDB50460810
:100ED00022E1000EF66E3F0EF76EF86A010EDBCFD0
:100EE000E9FF020EDBCFEAFFEECFF6FF0800F5CFF9
:100EF000C9FF00000000144E08D0EECFF6FF080036
:100F0000C9CFF6FFF5CFC9FFF6D7000000000000FB
:100F1000C9CFF6FF4FD0150EDB50440828E1000E74
:100F2000F66E3F0EF76EF86A010EDBCFE9FF020E98
:100F3000DBCFEAFF030EDBCFE1FF040EDBCFE2FFE6
:100F4000EECFF6FF0800F5CFC9FF0000000000005B
:100F50000000000000000000000000000000C9CFF9
:100F6000F6FF0800F5CFE6FF142EEAD723D0000ED7
:100F7000F66E3F0EF76EF86A030EDBCFE9FF040E44
:100F8000DBCFEAFF000EC96E000000000000000089
:100F90000000000000000000144E07D0C9CFF6FF8B
:100FA000C96E0800F5CFEEFFF5D7C9CFF6FF0800F0
:100FB000F5CFEEFF17C0E1FF18C0E2FF15C0E9FF53
:100FC00016C0EAFF150EDB50440804E0150EDB5096
:100FD00045085EE193C0E6FFA5C0E6FFA6C0E6FFB8
:100FE000010EE66E010EE66E3FEC10F01B6E050E74
:100FF000E15E1B50F3CF19F0F4CF1AF000019851C5
:10100000E96EEA6AD890E936EA36940EE926000ECF
:10101000EA2219C0EEFF1AC0EDFF0001987100012D
:101020009851E96EEA6AD890E936EA36940EE926D4
:10103000000EEA22EE50ED1002E1000E13D0000186
:101040009851E96EEA6AD890E936EA36940EE926B4
:10105000000EEA22EE50EFCFEAFFE96EEF50800B70
:1010600001E0010E000901E0DAD700019851200DDE
:10107000F3CFA5F0F4CFA6F0300E0001A527020EA5
:101080000001A623030EA5C0DBFF040EA6C0DBFFF4
:10109000150EDB50440805E0150EDB50460801E054
:1010A0007AD0200EE66E00019251200DF3CF1BF096
:1010B000F4CF1CF0700E1B26020E1C221BC0E6FF94
:1010C0001CC0E6FFE66A010EE66E3FEC10F01D6EF6
:1010D000050EE15E1D50F3CF19F0F4CF1AF00001B8
:1010E0009251E96EEA6AD890E936EA368E0EE92620
:1010F000000EEA2219C0EEFF1AC0EDFF0001927146
:1011000000019251E96EEA6AD890E936EA368E0E0D
:10111000E926000EEA22EE50ED1002E1000E13D097
:1011200000019251E96EEA6AD890E936EA368E0EED
:10113000E926000EEA22EE50EFCFEAFFE96EEF500B
:10114000800B01E0010E000901E0DAD700019251A5
:10115000E96EEA6AD890E936EA368E0EE926000E84
:10116000EA22EE50EFCFEAFFE96EEE52EFCF93F0B6
:1011700000019251200DF3CFA3F0F4CFA4F0700E34
:101180000001A327020E0001A423010EA3C0DBFF70
:10119000020EA4C0DBFF64D60B0EDB50146E14509D
:1011A000010836E2150EDB50440804E0150EDB5052
:1011B000460813E1010EDBCFE9FFDB2A020EDBCF8D
:1011C000EAFF01E3DB2AEF50F76A000FF66E3F0EED
:1011D000F7220800F550C96E01D0C96AC750E8A0CF
:1011E000FDD7C950F76A000FF66E3F0EF7220800D0
:1011F000F550E66E030EDBCFE9FFDB2A040EDBCFF2
:10120000EAFF01E3DB2AE552E750EF6E1406C7D789
:101210008A9CC69A070E196E1A6A1B6A1C6AD950F4
:10122000070FE96EDACFEAFFEE501916EE501A16E4
:10123000EE501B16EE501C16110E19C0DBFF110EDE
:10124000DB5005E1080EF36E110EF3CFDBFF150E38
:10125000DB50440804E0150EDB50460811E1010E96
:10126000DBCFE9FF020EDBCFEAFFEF50F76A000F9A
:10127000F66E3F0EF7220800130EF5CFDBFF02D00B
:10128000130EDB6A140EDB6A800EF36E100EF3CFC2
:10129000DBFF110EDB5000082BE2110EDB0401E135
:1012A0008B8C81A809D0140EDBCFE7FF100EDB502A
:1012B000E712140EE7CFDBFF100EDBCFE6FF130EB5
:1012C000DB50E552E71402E0010E01D0000EE8B059
:1012D0008B8EE8A08B9E8A8C8A9C110EDB06100EEA
:1012E000DBCFF3FFF390F342100EF3CFDBFFD1D748
:1012F000150EDB50440804E0150EDB50450816E1DE
:10130000140EDB50F76A000FF66E3F0EF72208004E
:10131000F550E66E030EDBCFE9FF040EDBCFEAFFEC
:10132000E552E750EF6E0B0EDB50DF6EF50E00015D
:10133000AB5D03E20001AB6B03D0F50E0001AB5FC8
:1013400087EF0EF0A3C0E9FFA4C0EAFFEE52070E3C
:10135000EECFDBFF080EEECFDBFF090EEECFDBFF9B
:101360000A0EEECFDBFF070EDBCF19F0080EDBCF46
:101370001AF0090EDBCF1BF00A0EDBCF1CF0195060
:101380001A101B101C1002E187EF0EF0A3C0E9FF3A
:10139000A4C0EAFF050EEB50E76E0F0EE7CFDBFFB0
:1013A0008A9C0F0EDBB20BD00F0EDB50040B02E059
:1013B000010E01D0000EE8B08B8CE8A08B9C0F0EC4
:1013C000DBB60BD00F0EDB50100B02E0010E01D08C
:1013D000000EE8B08B8EE8A08B9E0F0EDB94DB989E
:1013E000DB9ADB9CDB9E070EDBCF04F0080EDBCF25
:1013F00005F0090EDBCF06F00A0EDBCF07F0070E73
:101400000426000E0522000E0622000E0722080EFA
:10141000096E0A6A0B6A0C6A04EC19F00B0E04C020
:10142000DBFF0C0E05C0DBFF0D0E06C0DBFF0E0E52
:1014300007C0DBFF0F0EDB50080B11E00F0EDB5077
:10144000020B0DE0D9500B0FE96EDACFEAFFD8900E
:10145000EF36010EEB36020EEB36030EEB36060EC0
:101460000001935F060E00011A6AA325196EA451AC
:101470001A22050E19C0DBFF060E1AC0DBFF030E91
:10148000A5C0DBFF040EA6C0DBFF0F0EDB50080A71
:1014900006E0090A01E007D00001200E936F938C4B
:1014A000C68A939C01D000D093C019F01A6A1B6AB7
:1014B0001C6AD9500B0FE96EDACFEAFFEE50195CC7
:1014C000EE501A58EE501B58EE501C5801E307D24C
:1014D00093C019F01A6A1B6A1C6AD9500B0FE96E87
:1014E000DACFEAFF1950EE5E1A50EE5A1B50EE5A50
:1014F0001C50EE5A0001AB5103E100010A0EAB6F24
:101500000F0EDB506EE0080A3FE0090A01E06AD0E6
:1015100093C014F0E9CF15F0EACF16F0000EF66E86
:101520003F0EF76EF86A030EDBCFE9FF040EDBCF48
:10153000EAFF000EC96E000000000000000000007D
:10154000000000000000144E07D0C9CFF6FFC96E9E
:101550000800F5CFEEFFF5D7C9CFF6FF0800F5CFAD
:10156000EEFF15C0E9FF16C0EAFF00019351196EA6
:101570001A6AD950030FE96EDACFEAFF1950EE2646
:101580001A50ED228A9CB8D093C014F0E9CF15F020
:10159000EACF16F0000EF66E3F0EF76EF86A050EF3
:1015A000DBCFE9FF060EDBCFEAFFEECFF6FF080048
:1015B000F5CFC9FF00000000144E08D0EECFF6FFB3
:1015C0000800C9CFF6FFF5CFC9FFF6D7000000002D
:1015D0000000C9CFF6FF8A9C15C0E9FF16C0EAFFDC
:1015E0008BD08AD093C014F00F0EDB50080B06E0AE
:1015F0000F0EDB50020B02E014901442145001E174
:101600007AD00F0EDBA20CD0050EDBCFE9FFDB2A70
:10161000060EDBCFEAFF01E3DB2A120EEFCFDBFF82
:101620000F0EDBA60CD0050EDBCFE9FFDB2A060E82
:10163000DBCFEAFF01E3DB2A130EEFCFDBFF140E53
:10164000DB6A080EF36E110EF3CFDBFF010EF36EB3
:10165000100EF3CFDBFF110EDB503CE081A809D068
:10166000140EDBCFE7FF100EDB50E712140EE7CFAE
:10167000DBFF0F0EDBA20FD0100EDBCFE6FF120E4A
:10168000DB50E552E71402E0010E01D0000EE8B095
:101690008B8CE8A08B9C0F0EDBA60FD0100EDBCF3F
:1016A000E6FF130EDB50E552E71402E0010E01D015
:1016B000000EE8B08B8EE8A08B9E8A8C8A9C110E5F
:1016C000DB06100EDBCFF3FFF39EF346100EF3CFD5
:1016D000DBFFC1D70F0EDBA00CD0030EDBCFE9FF81
:1016E000DB2A040EDBCFEAFF01E3DB2A140EDBCF9B
:1016F000EFFF140683D700D00F0EDBA06BD0030ED4
:10170000DBCF06F0040EDBCF07F00001A551065C2D
:101710001B6EA65107581C6E1B50E66EA5C0E6FF57
:10172000A6C0E6FF010EE66E010EE66E3FEC10F07D
:101730001D6E050EE15E1D50F3CF19F0F4CF1AF0C7
:1017400000019851E96EEA6AD890E936EA36940EBB
:10175000E926000EEA2219C0EEFF1AC0EDFF0001D3
:10176000987100019851E96EEA6AD890E936EA3634
:10177000940EE926000EEA22EE50ED1002E1000E72
:1017800013D000019851E96EEA6AD890E936EA363A
:10179000940EE926000EEA22EE50EFCFEAFFE96E42
:1017A000EF50800B01E0010E000901E0DAD70001E3
:1017B0009851200DF3CFA5F0F4CFA6F0300E000124
:1017C000A527020E0001A6230F0EDB0403E1000192
:1017D000200E936F0F0EDB500A0B74E0200EE66EA6
:1017E00000019251200DF3CF1BF0F4CF1CF0700ECE
:1017F0001B26020E1C221BC0E6FF1CC0E6FFE66A89
:10180000010EE66E3FEC10F01D6E050EE15E1D5000
:10181000F3CF19F0F4CF1AF000019251E96EEA6AA1
:10182000D890E936EA368E0EE926000EEA2219C073
:10183000EEFF1AC0EDFF0001927100019251E96EB6
:10184000EA6AD890E936EA368E0EE926000EEA22D8
:10185000EE50ED1002E1000E13D000019251E96E3E
:10186000EA6AD890E936EA368E0EE926000EEA22B8
:10187000EE50EFCFEAFFE96EEF50800B01E0010E72
:10188000000901E0DAD700019251200DF3CFA3F057
:10189000F4CFA4F0700E0001A327020E0001A423D0
:1018A00000019251E96EEA6AD890E936EA368E0E66
:1018B000E926000EEA22EE50EFCFEAFFE96EEE5283
:1018C000EFCF93F0050EA3C0DBFF060EA4C0DBFF35
:1018D000030EA5C0DBFF040EA6C0DBFFE5D58A9C86
:1018E000C69A0B0EDB50146E0F0EDB50080B06E091
:1018F0000F0EDB50020B02E0149014420F0EDBA01F
:1019000002D01450DF6E145001E199D00F0EDBA20B
:101910000CD0050EDBCFE9FFDB2A060EDBCFEAFF9A
:1019200001E3DB2A120EEFCFDBFF0F0EDBA60CD09C
:10193000050EDBCFE9FFDB2A060EDBCFEAFF01E372
:10194000DB2A130EEFCFDBFF140EDB6A080EF36EFB
:10195000110EF3CFDBFF14041DE1070E196E1A6A96
:101960001B6A1C6AD950070FE96EDACFEAFFEE5006
:101970001916EE501A16EE501B16EE501C16110ECC
:1019800019C0DBFF110EDB5005E1080EF36E110EDE
:10199000F3CFDBFF010EF36E100EF3CFDBFF110E62
:1019A000DB503CE081A809D0140EDBCFE7FF100E1E
:1019B000DB50E712140EE7CFDBFF0F0EDBA20FD0D8
:1019C000100EDBCFE6FF120EDB50E552E71402E00B
:1019D000010E01D0000EE8B08B8CE8A08B9C0F0E9E
:1019E000DBA60FD0100EDBCFE6FF130EDB50E55267
:1019F000E71402E0010E01D0000EE8B08B8EE8A0E3
:101A00008B9E8A8C8A9C110EDB06100EDBCFF3FFB7
:101A1000F39EF346100EF3CFDBFFC1D70F0EDBA012
:101A20000CD0030EDBCFE9FFDB2A040EDBCFEAFF8D
:101A300001E3DB2A140EDBCFEFFF140664D767D176
:101A4000A3C0E9FFA4C0EAFFEE52D880550EEE54C1
:101A5000150EEE54000EEE54000EEE5436E2A3C006
:101A6000E9FFA4C0EAFFEE52EECF19F0EECF1AF074
:101A7000EECF1BF0EFCF1CF0550E096E150E0A6E5F
:101A80000B6A0C6A19C004F01AC005F01BC006F0FE
:101A90001CC007F004EC19F004C019F005C01AF0DE
:101AA00006C01BF007C01CF0192A000E1A22000EF7
:101AB0001B22000E1C2219C0A7F01AC0A8F00001BA
:101AC000A751A81101E0FBD71AD0A3C0E9FFA4C019
:101AD000EAFFEE52EECF10F0EECF11F0EECF12F0A3
:101AE000EFCF13F0105011101210131008E08A7C81
:101AF0008A7C1006000E115A125A135AF3D7050E9B
:101B0000E66EE66AA3C0E6FFA4C0E6FFA5C0E6FF56
:101B1000A6C0E6FF89EC17F0196E060EE15E1950BB
:101B2000050EDF6EF4D0A3C0E9FFA4C0EAFFEE52B9
:101B3000EF50010B02E08B8601D08B96DF6AE7D075
:101B4000A3C0E9FFA4C0EAFF010EEB50000902E0C8
:101B5000938E02D0818E939E020EDF6ED8D0A5C0E8
:101B6000E9FFA6C0EAFF150EDBCFEFFFC30EC214DC
:101B70001809C26EC282C2B2FED7A5C0E9FFA6C0D4
:101B8000EAFF010EC4CFEBFFA5C0E9FFA6C0EAFF44
:101B9000020EC3CFEBFF030EDF6EB9D0A5C0E9FF85
:101BA000A6C0EAFF150EDBCFEFFFC30EC2142C094F
:101BB000C26EC282C2B2FED7A5C0E9FFA6C0EAFFCC
:101BC000010EC4CFEBFFA5C0E9FFA6C0EAFF020EDD
:101BD000C3CFEBFF030EDF6E9AD0A3C0E9FFA4C012
:101BE000EAFFEF50E66EA5C0E9FFA6C0EAFFE552A6
:101BF000E750EF6E146AA3C0E9FFA4C0EAFF010E2C
:101C0000EB50145C27E2A3C0E9FFA4C0EAFF020E78
:101C1000E926000EEA22EF501424E66E1CEC04F0D4
:101C2000E552E66EA5C0E9FFA6C0EAFF050EE9266B
:101C3000000EEA22E9CF19F0EACF1AF014500F0192
:101C40001924E96E000E1A20EA6EE552E750EF6E95
:101C5000142AD1D7050E1424DF6E59D0A3C0E9FF92
:101C6000A4C0EAFFEF50E66EA5C0E9FFA6C0EAFFF8
:101C7000E552E750EF6E146AA3C0E9FFA4C0EAFF83
:101C8000010EEB50145C26E2A3C0E9FFA4C0EAFFFA
:101C9000050EE926000EEA22E9CF19F0EACF1AF084
:101CA00014500F011924E96E000E1A20EA6EEF504D
:101CB000E66EA3C0E9FFA4C0EAFF020EE926000E0B
:101CC000EA22EF501424E66E26EC04F0E552E552C9
:101CD000142AD2D739EC04F0010EDF6E18D06496C6
:101CE00010681168126A136A10681168126A136A20
:101CF000105011101210131006E01006000E115AA9
:101D0000125A135AF5D7FF0002D0DF6A00D0200E16
:101D1000E66E00019251200DF3CF1BF0F4CF1CF0C2
:101D2000700E1B26020E1C221BC0E6FF1CC0E6FF25
:101D3000E66A010EE66E3FEC10F01D6E050EE15EE8
:101D40001D50F3CF19F0F4CF1AF000019251E96E53
:101D5000EA6AD890E936EA368E0EE926000EEA22C3
:101D600019C0EEFF1AC0EDFF00019271DF5058E07C
:101D7000DFCFE6FFA5C0E6FFA6C0E6FF010EE66ED8
:101D8000010EE66E3FEC10F01B6E050EE15E1B507F
:101D9000F3CF19F0F4CF1AF000019851E96EEA6A16
:101DA000D890E936EA36940EE926000EEA2219C0E8
:101DB000EEFF1AC0EDFF0001987100019851E96E25
:101DC000EA6AD890E936EA36940EE926000EEA224D
:101DD000EE50ED1002E1000E13D000019851E96EB3
:101DE000EA6AD890E936EA36940EE926000EEA222D
:101DF000EE50EFCFEAFFE96EEF50800B01E0010EED
:101E0000000901E0DAD700019851200DF3CFA5F0C9
:101E1000F4CFA6F0300E0001A527020E0001A62384
:101E2000160EE15C02E2E16AE552E16EE552E7CFAF
:101E3000D9FF1200E66EE66A010EE66E3FEC10F086
:101E4000196E050EE15E19501200D9CFE6FFE1CF01
:0C1E5000D9FF1200E552E7CFD9FF1200C5
:041E5C007FEC15F012
:101E6000A0940F015F6B626A536B79EC15F003EC81
:101E700015F0DF6ADF50196E1A6A080E195C000E41
:101E80001A5810E2DF50040DF3CFE9FFF4CFEAFF58
:101E9000000EE926020EEA22EE6AEE6AEE6AEE6AA9
:101EA000DF2AE8D7648C0F015C6B6498649C62A69F
:101EB00007D062960001736B786B796B7A6BF7D7FA
:101EC0000001010E8A6F8B6F8C6B8D6B806BDF6AEC
:101ED000020EDF5C11E2EA6ADF3482EC15F0EA22DE
:101EE000EE6AED6AEA6ADF3489EC15F0EA22EE6AFE
:101EF000ED6ACCEC14F0ECD70001080E6B6F020E0B
:101F00006C6F0F01160E536F0201200E026F020E4E
:101F1000036F080E016F840E006F0001616B606B30
:101F2000E5529EEF14F07FEC15F00001600507E12B
:101F300064BA05D0626A60806088020E606F625089
:101F4000040B05E06050040B02E062943ADB64B2DB
:101F50003FD06250010B09E06050010B06E07EDFCC
:101F6000A0840001040E606F62906250100B05E0C7
:101F70006050100B02E01BDB629862AC08D060ACD2
:101F800005D01BEC15F0730E8BEC14F0629C6250C4
:101F9000200B04E06050200B01E0F8DA6250020BE5
:101FA0000CE06050020B09E01BEC15F0E6687F0EB8
:101FB000E66E90EC15F00F015F6B040E0001E76E0A
:101FC0006019E8AE02D0E73402D0E750605D02E26B
:101FD000A1942ED060A62BD0DF6A040EDF5C27E22E
:101FE00062A625D063CF81F000018151780BE842D1
:101FF000E842E842826F629681B504D0825197EC44
:1020000015F003D082519CEC15F0EA22EF7082515A
:1020100002E1E3DA0AD0000EE66EE66A810EE66EB1
:10202000000EE66E720E8BEC14F0DF2AD6D7A19468
:10203000E5529EEF14F053EC15F0FD0EDBA403D037
:10204000E66A0BEC15F0FD0EDBA204D0010EE66E85
:102050000BEC15F0FE0EDB501A6A530F196E0F0EC3
:10206000FDEC14F08FEC14F0FD0EDBCFEFFF020E51
:10207000E15C02E2E16AE552E16E9EEF14F053EC9E
:1020800015F0FD0EDB5003E086EC14F002D0BDEC41
:1020900014F0E9EC14F0D9CFE9FFDACFEAFFEE5003
:1020A000ED1003E1F36AF46A28D08FEC14F0ABEC86
:1020B00015F0FB0EDBCFEEFFFC0EDBCFEDFF8FEC60
:1020C00014F0EE52FA0EDBCFEFFF400EA1EC15F04C
:1020D000880EB0EC15F0FD0EDB5003E086EC14F03A
:1020E00002D0BDEC14F0EA22EF74DECF19F0DDCFA0
:1020F0001AF019C0F3FF1AC0F4FF020EE15C02E20D
:10210000E16AE552E16E9EEF14F053EC15F0FE0E1D
:10211000DB5003E161EC15F009D0C2EC14F041ECA6
:1021200015F0C2EC14F0010F41EC15F0020EE15C69
:1021300002E2E16AE552E16E9EEF14F099EC14F0D0
:1021400064A816D072EC15F0400EEE16EE6AEE6A38
:10215000EE6A72EC15F0EE7CD9DBEA22EF74400EE9
:10216000196E72EC15F01950EF1672EC15F0EF7C49
:10217000E5D3646A606A0001606B1200000160517F
:102180000FE1646A606A03EC15F0D08EA284A0842B
:10219000F28E64B602D06486FCD70001010E606F37
:1021A000120000018A5122E1010E8A6F8B511EE15B
:1021B000010E8B6F020E705D07E1B6DBEE52EF6A27
:1021C000B3DBC80EEF6E1200700510E1836BC2DB4B
:1021D000EE52080EEF6EBEDB4DEC15F0BBDB840E4D
:1021E000EF6E010E836F8EDB800EEF6E120000012A
:1021F0008C6B8D6B020E705D06E1A5EC15F0AFDB0C
:102200003CEC15F010D074510201265D00017551AF
:102210000201275904E226C274F027C275F061D882
:1022200083DB9DDB81DBC80EEF6E120053EC15F0F3
:10223000000EDE6E020EDD6EA5DB040DF4CF1AF08B
:10224000D9CFE9FFDACFEAFFF350EE261A50ED229C
:1022500066DBEF9EFD0EDB5002E18FDB01D056DB2B
:10226000EA22DECFEEFFDDCFEDFF59DBEF9C57DB3F
:10227000040EE926000EEA22EF8C020EE15C02E277
:10228000E16AE552E16E5AD36498000173BF0DD044
:1022900078AF09D0020E706F8D5101E1A8DF000107
:1022A0008B6B8A6B120061EF15F0020120AF0DD02D
:1022B0000001010E706F8C5101E199DF00018B6B01
:1022C0008A6B89510DE1D1EF10F00001020E706FA1
:1022D00019DB840EEF6E8B6B8A6B895101E161DF34
:1022E00012007FEC15F0080EDF6E0001745D000E29
:1022F00075590AE274C0DFFF6F5102E1010E03D08D
:102300006F0502E1020E6F6FDF501A6AE850745DCC
:10231000746F1A507559756F07DBEE52DFCFEFFF00
:10232000280E7D6F020E7E6F73B10DD0DF5017E067
:1023300071C0F6FF72C0F7FF712B000E7223080008
:10234000F5503ADBF3D7DF500AE071C0E9FF72C005
:10235000EAFF712B000E7223EF502EDBF4D7E5520B
:10236000EDD2A1DBF7DAEE52EFCFDFFFDFCF19F0CE
:1023700019500001795D000E7A5902E279C0DFFF41
:10238000DF50196E1A6AE850795D796F1A507A59E0
:102390007A6F010EDB6ADF50F36E010EDBCFF4FFC4
:1023A000F350F45C16E2010EDB50EA6A280FE96E86
:1023B000020EEA22EF50E66E76C0E9FF77C0EAFF30
:1023C000762B000E7723E552E750EF6E010EDB2AE5
:1023D000E2D7000ED8807955000E7A550DE2B5DBB4
:1023E000BEDAB8DAEF50400B03E146DBC80E02D08C
:1023F00043DB880EEF6E12D085DA840EEF6E7B51D0
:102400007C1107E005D07CC0FAFF00017B51F96E1A
:10241000FADF0001789F895101E1C3DE020EE15C21
:1024200002E2E16AE552E16E89D269DB0001738F55
:1024300060DB200EE66EE66AE66A000EE66E020ECD
:1024400094DA648CDF6A020EDF5C02E2A5DAFBD765
:102450000EDB620EE66E000E88DA649C0001080E48
:102460006B6F020E6C6F000E636F020E646F63C0C1
:1024700065F0666F22C261F0615102E1100E0BD06F
:10248000010EE66EE66A610EE66E000EE66E010E65
:1024900042DA0001200E606FE55250D2800E020138
:1024A000205D38E10001C00E736F02012351030A61
:1024B0001AE0010A09E0030A2BE10001E20E716F44
:1024C0002F0E726F120E1ED0C4DA9E0EF626300E3C
:1024D000AADA020E0001B6DAF5CF74F0030EB2DA12
:1024E000F5CF75F01200030E225D0FE2B2DAA00EF6
:1024F000F626300E98DA71C0F6FF72C0F7FF0800BA
:10250000F5500001746F756B12000001736B1200BF
:102510000001736B1200C7DA0201286B296B20518E
:102520001F0B020A11E0030A0CE0010A1EE1000180
:10253000738F0201288100017F0517E102012883C2
:1025400014D00001738F11D00001738F020124BFDA
:1025500002D0BEDA01D0C1DA3CDAC7DA06E0DFD950
:10256000EF50040B02E0010E286F000173AF07D09B
:10257000280E716F020E726F7381020E746F020E5D
:10258000E15C02E2E16AE552E16ED8D10F0153A1AC
:102590000CD0E0D9EF50800807E1C6D9EF5084088D
:1025A00003E1D8D98C0EEF6E5391629A12006084C9
:1025B000629864820001010E806F11DA750E8BEF54
:1025C00014F00001806B0BDA740EA5D9649260944C
:1025D00062A402D06294FCD7120091DAFD0E0001D1
:1025E000811539E17E0E8115E8407F0B040DF3CF94
:1025F00063F0F4CF64F0000E6327020E642363C01F
:1026000065F064C066F06575A5D9EF503C0BE842F3
:10261000E8420D081EE1DF6A080EDF5C16E29AD977
:10262000020EE926000EC2D9EF50E66EDF50EA6ACC
:10263000200FE96E020EEA22E552E750EF6E8AD9CA
:102640008ADAEE2AEF22DF2AE7D784D926DA0AD8F7
:1026500007D023D805D0FD0E8115040801E12CD840
:10266000E5526CD100016F6B896B8C6B8D6B836B4A
:10267000706B5AD9EF9E6B7557D9EF9E6B75FCD96D
:10268000EF9E736B746B756B786B796B7A6B51D84B
:10269000A6D9030E40D944EF11F0020E0001705D7F
:1026A00002E1B1EF11F0706B835104E12BD98C0E74
:1026B000EF6E1200836B120022DA36D9EF50400B16
:1026C00001E0010EDF6E00016B75080E605D0BE12D
:1026D00022C25CFF0F015C5103E00001100E02D02A
:1026E0000001040E606F700513E11ED938D9F9DDC1
:1026F000020E00016F5D03E117D9840E07D0DF5091
:1027000003E112D9C80E02D00FD9880EEF6E0FD098
:1027100078AF0CD07B517C1107E005D07CC0FAFF6C
:1027200000017B51F96EFADF0001789F706BE55272
:1027300005D102012051600BE842E842E842E8423C
:10274000E842000901E0120021510C0A45E00B0AA1
:102750003FE00C0A31E0010A22E00B0A1EE0020A07
:102760001CE0030A18E0080A10E0010A0CE00F0A56
:1027700008E0030A01E012000001738F080E606F89
:1027800012004EEF12F015EF12F00001610E716FA2
:10279000000E726F0CD08BEF12F0EDEF13F024519E
:1027A0000001716F726B620E7127000E72237381CC
:1027B000010E746F738F12000001738F0201245198
:1027C000EA6A620FE96E000EEA2222C2EFFF1200EF
:1027D00006D9020E8BEF14F01200ABD8050EE126DD
:1027E0000201220510E120511F0B00090CE100013C
:1027F000738F030E0201215D04E10001010E7F6F62
:1028000002D000017F6B0201225101E074D02051FF
:102810001F0B020870E124510F0B00096CE02451DA
:102820000F0B010868E3200E0001605D64E1738F07
:10283000020124BF04D04CD9CCD8D7D803D04DD96D
:10284000C8D8D7D8EA22020EEFCFDBFF09D9010B97
:1028500003E1000EDF9401D0DF8424BF02D038D919
:1028600001D03BD9EA22DECFEEFFDDCFEDFF030E34
:10287000215D0CE13AD907E024BF02D0B6D801D0DF
:10288000B8D8EA22EF82840E6BD935D0DF742DD907
:1028900006E045D8EF9E43D8EF8C09D902D03FD847
:1028A000EF8CDF74DDD8020B02E11FD90DE00201CD
:1028B00024BF02D09AD801D09CD8EA22EF923B0ED6
:1028C000196E3FD9F4D802D03B0E3BD902012451F6
:1028D0000F0B1A6A530F196E0F0E1A22030E19C02E
:1028E000DBFF040E1AC0DBFF030EDBCFE9FF040E93
:1028F000DBCFEAFFEF90050EE15C02E2E16AE55210
:10290000E16E1CD022D9C9D83CEF15F0FE0EEA6A60
:10291000DB3482EF15F0E66EE66A90EF15F0DECF5D
:10292000E9FFDDCFEAFF12006BC0E9FF6CC0EAFFF0
:102930001200D9CFE6FFE1CFD9FF1200E552E7CF71
:10294000D9FF120024510F0BE96EEA6AD890E936DC
:10295000EA36120063C0E9FF64C0EAFF1200FBD848
:10296000280EEE6E020EED6E1200E66ED7EC17F03A
:10297000196E050EE15E19501200FE0EEA6ADB3494
:1029800089EF15F0FD0EDB50E8241B6EFE0EDB50C8
:10299000040DF3501B241200DF50CED8EA22EF6A58
:1029A000DF50C5D8EA22EF6ADF2A1200EA22EE5091
:1029B000EFCFEAFFE96E1200E66E7DC0E9FF7EC050
:1029C000EAFF7D2B000E7E23E552E750EF6EDF0617
:1029D0001200EA22EECFDEFFEDCFDDFF1200000E87
:1029E000E66EE66AE66EE66A120024510F0B97EF78
:1029F00015F024510F0B9CEF15F01A2219C0DEFFC1
:102A00001AC0DDFF1200160E616E0F019F0E5B6F84
:102A10007B0E606E1200FE0EDBCFE6FF16EC11F0AF
:102A2000E552E5521200F7220900F5CF71F00A00D5
:102A3000F5CF72F01200010EE66EE66A000EE66E49
:102A4000E66A1200F76A7125F66E7251F7220800E5
:102A500012002251F66EF76AD890F636F736120059
:102A6000D950020FE96EDACFEAFFEF501200010EE3
:102A7000E66EE66AE66A120065C0E9FF66C0EAFF34
:102A80001200040DF3CF19F0F4CF1AF0000E19263E
:102A9000020EB3DF840EB0EF15F05DD8200EEE6E9F
:102AA000020EED6E120045DF020EE1261200020E4C
:102AB000E66EE66ADECFE6FFDDCFE6FF050E8BEFC2
:102AC00014F020DF8C0EEF6E2FDF840EEF6E1200FD
:102AD00039DF670EE926000E120034DF6B0EE9269F
:102AE000000E120013DFD6EF14F019DFEF50800B49
:102AF0001200BDDF540EE66E0F0EB5EF14F019DFB5
:102B0000E6521200FE0BEA36E96E6B0EE926000E65
:102B10001200FE0BEA36E96E670EE926000E12007F
:102B200015EC17F0196E060EE15E19501200EA6AF4
:102B3000860FE96E000E1200EA6A840FE96E000E3D
:102B40001200EDDEE850EF16120096DFEE52080E8E
:102B5000EF6E3CEF15F0020EE926000EEA2212009D
:082B6000DEDEE850EF12120066
:082B6800D9CFE6FFE1CFD9FF50
:102B7000040EE126FB0EDBCF04F0FC0EDBCF05F0EC
:102B8000FD0EDBCF06F0FE0EDBCF07F00C0E096E5C
:102B90000A6A0B6A0C6AA2EC18F000C0DEFF01C0E2
:102BA000DEFF02C0DEFF03C0DDFFDD52DD52C2D812
:102BB0000A0EB1D871E3BED8F60EADD808E2A1D89E
:102BC0000A0E096E0A6AAFD88BEC19F064D0B2D83D
:102BD0009C0EA1D808E295D8640E096E0A6AA3D8A3
:102BE0007DEC19F058D0A6D8180EEE5CE40EEE5825
:102BF000000EEE58000EEE5809E283D8E80E096E7A
:102C0000030E0A6E90D83FEC19F045D093D8D880C7
:102C1000100EEE54270EEE54000EEE54000EEE543D
:102C20000EE2010EE66E28EC19F0E55283D8100E84
:102C3000EE5E270EEE5A000EEE5AEE5AE7D77AD81D
:102C4000EECF19F0EECF1AF0EECF1BF0EFCF1CF065
:102C50000C0E096E0A6A0B6A0C6A19C004F01AC0DD
:102C600005F01BC006F01CC007F004EC19F004C00E
:102C700019F005C01AF006C01BF007C01CF004C014
:102C8000E6FF05C0E6FF06C0E6FF07C0E6FF6CDF13
:102C9000E552E552E552E552040EE15C02E2E16ADA
:102CA000E552E16EE552E7CFD9FF1200D9CFE6FF3A
:102CB000E1CFD9FFE652DF6AD950FB0FE96EFF0E74
:102CC000DA20EA6E000ED880EE54000EED5411E2C8
:102CD000FD0EDBCFE9FFDB2AFE0EDBCFEAFF01E3CF
:102CE000DB2AEF50DF26FB0EDB06FC0EE5E2DB06FF
:102CF000E3D7FF0EDF02F350E552E552E7CFD9FFED
:102D0000120018D8EECF04F0EECF05F0EECF06F0AB
:102D1000EFCF07F01200EE5C000EEE58000EEE58FA
:102D2000000EEE5812000B6A0C6A04EC19F0045005
:0E2D3000E66E1200D9CFE9FFDACFEAFF1200FB
:022D3E00C1D8FA
:102D400000EE00F0100EE80403E3EECFE4FFFBD743
:102D500000EE19F0060EE80403E3EECFE4FFFBD724
:102D6000E65293EC0FF0E55200EE1EF0060EE8047A
:102D700003E3E5CFEDFFFBD700EE0FF0100EE80404
:102D800003E3E5CFEDFFFBD7B1D81100D8CFE4FFC7
:102D9000E0CFE4FFE46E95D800EE00F0100EE804FA
:102DA00003E3EECFE4FFFBD700EE19F0060EE804D4
:102DB00003E3EECFE4FFFBD7E652E2EC18F0E55276
:102DC00000EE1EF0060EE80403E3E5CFEDFFFBD7AF
:102DD00000EE0FF0100EE80403E3E5CFEDFFFBD7A4
:102DE00085D8E550E5CFE0FFE5CFD8FF100005D846
:102DF000BEEC10F0FDEC04F0FDD757EC04F02EEF24
:102E00000FF012001200120012001200120064846F
:102E10000001080EA96F070EAA6FA907000EAA5B92
:102E2000A951AA11FAE164941200D9CFE6FFE1CFCB
:102E3000D9FFFD0EDBCF06F0FE0EDBCF07F0720EE2
:102E4000061801E1075034E0E868061802E17F0E39
:102E500007182CE0740E061801E1075025E0750EE6
:102E6000061801E107501EE0730E061801E1075035
:102E700017E0030E061801E1075010E0020E0618D5
:102E800001E1075009E0010E061801E1075001E0D9
:102E900011D0D5EC04F00FD0B9DF0DD0B6DF0BD0D8
:102EA000B2DF09D0AEDF07D0ADDF05D0ADDF03D094
:102EB000000001D000D0010E00D0E552E7CFD9FFCD
:102EC0001200DACFE4FFE2CFDAFFE9CFE4FFEACF86
:102ED000E4FFF6CFE4FFF7CFE4FFF5CFE4FFF3CF55
:102EE000E4FFF4CFE4FFFACFE4FF1200E5CFFAFFEE
:102EF000E5CFF4FFE5CFF3FFE5CFF5FFE5CFF7FF33
:102F0000E5CFF6FFE5CFEAFFE5CFE9FFE5CFDAFF52
:022F10001200AD
:0E2F1200D9CFE6FFDACFE6FFFA0EE3CFD9FF04
:102F2000FB0EE3CFDAFFFC0EE3CFE9FFFD0EE3CFAC
:102F3000EAFFE9CFF3FFEACFF4FFF80EE35003E135
:102F4000F90EE35008E0F80EE30602E2F90EE3069C
:102F5000DECFEEFFF2D7FF0EE3CFDAFFE552FF0E32
:102F6000E3CFD9FFE5521200FB0EE3CFF6FFFC0ED4
:102F7000E3CFF7FFFD0EE3CFF8FFFE0EE3CFE9FF4F
:102F8000FF0EE3CFEAFFE9CFF3FFEACFF4FFF90E3C
:102F9000E35003E1FA0EE35009E0F90EE30602E222
:102FA000FA0EE3060900F5CFEEFFF1D71200FE0E90
:102FB000E3CFE9FFFF0EE3CFEAFFE9CFF3FFEACF6C
:102FC000F4FFFB0EE35003E1FC0EE35009E0FB0EBF
:102FD000E30602E2FC0EE306FD0EE350EE6EF1D7CF
:022FE0001200DD
:0E2FE2001201000200000008D8048CFF030159
:102FF00001020001090220000101008032090400E1
:103000000002FFFFFF000705010220000107058104
:1030100002200001040309044A035800200045006F
:103020006E00670069006E0065006500720069004F
:103030006E006700200053006F0066007400770088
:103040006100720065002000530079007300740075
:1030500065006D007300200043006F007200700077
:103060002E003C03580075004C00410020002D004C
:103070002000580045005300530020004D00690017
:10308000630072006F0020004C006F006700690051
:103090006300200041007200720061007900F42F8B
:0630A0001430183062300C
:0A30A6002A0EF66E080EF76E000EFB
:1030B000F86E00010900F5509E6F0900F5509F6FF2
:1030C00003E19E6701D03DD00900F550996F0900DA
:1030D000F5509A6F0900F5509B6F09000900F550F3
:1030E000E96E0900F550EA6E090009000900F55083
:1030F0009C6F0900F5509D6F09000900F6CFA0F004
:10310000F7CFA1F0F8CFA2F099C0F6FF9AC0F7FF71
:103110009BC0F8FF00019C5302E19D5307E00900AA
:10312000F550EE6E9C07F8E29D07F9D7A0C0F6FFB8
:10313000A1C0F7FFA2C0F8FF00019E07000E9F5B31
:04314000BFD71200E3
:0C31440004500902F3CF00F0F4CF01F0BA
:103150000A02F3500126000EF420026E04500B0206
:10316000F3500226000EF420036E04500C02F350BC
:10317000032605500902F3500126F4500222000EE6
:10318000032205500A02F3500226F4500322055090
:103190000B02F350032606500902F3500226F450A6
:1031A000032206500A02F350032607500902F35087
:0431B00003261200E0
:0C31B4000001AB6BB16AA292A192A08254
:1031C000B1801200A1920001A707000EA85B0001C8
:1031D000AC5102E10A0EAC6FAC07AB51000805E23E
:1031E000AC5111E18B7AAB071200100E0001E76EB3
:1031F0006019E8AE02D0E73402D0E750605D02E229
:083200008B9A12008B8A120068
:08320800036A026A016A006A10
:10321000200EE76ED890043605360636073600369F
:103220000136023603360950005C0A5001580B5033
:1032300002580C50035809E30950005E0A50015A25
:103240000B50025A0C50035A042AE72EE4D71200FE
:10325000FF0EE350206EEF0E01D0F30EE76EE72E67
:103260002FEF19F00C0E1F6EE76AE72E35EF19F0FD
:0E3270001F2E34EF19F0202E2DEF19F0120052
:02327E00FF0E41
:10328000E350206E480E01D04C0EE76EE72EFED7BD
:0E329000E76AE72EFED7202EF7D700001200C7
:02329E00000E20
:1032A000F36E00EE00F0030E01D81200EA6002D0C7
:0E32B000EE6AFCD7F350E9601200EE6AFCD71C
:0232BE0000020C
:1032C000010358754C4100000000000000000000A0
:0D32D00000000000000000000000000000F1
:0232DE0011EEEF
:1032E00000F021EE00F0F86A0F9C53EC18F097EC18
:0A32F00019F0F7EC16F0FBD71200FE
:0632FA00FF0EE350206E00
:103300001B0E00D001D0200EE76EE72EFED7202E38
:06331000FAD700D0120004
:0A331600FF0EE350E84E1200000025
:0C33200000D000D000D0E82EFAD7120038
:02332C0012008D
:02332E0012008B
:0B333000000000000000000000000092
:103F0000008040C020A060E0109050D030B070F031
:103F1000088848C828A868E8189858D838B878F8A1
:103F2000048444C424A464E4149454D434B474F4D1
:103F30000C8C4CCC2CAC6CEC1C9C5CDC3CBC7CFC41
:103F4000028242C222A262E2129252D232B272F2D1
:103F50000A8A4ACA2AAA6AEA1A9A5ADA3ABA7AFA41
:103F6000068646C626A666E6169656D636B676F671
:103F70000E8E4ECE2EAE6EEE1E9E5EDE3EBE7EFEE1
:103F8000018141C121A161E1119151D131B171F1A1
:103F9000098949C929A969E9199959D939B979F911
:103FA000058545C525A565E5159555D535B575F541
:103FB0000D8D4DCD2DAD6DED1D9D5DDD3DBD7DFDB1
:103FC000038343C323A363E3139353D333B373F341
:103FD0000B8B4BCB2BAB6BEB1B9B5BDB3BBB7BFBB1
:103FE000078747C727A767E7179757D737B777F7E1
:103FF0000F8F4FCF2FAF6FEF1F9F5FDF3FBF7FFF51
:020000040030CA
:0100000000FF
:0100010032CC
:010002000EEF
:010003001EDE
:01000500807A
:010006008178
:0100080003F4
:01000900C036
:01000A0003F2
:01000B00A054
:01000C0003F0
:01000D0040B2
:00000001FF
