:020000040000FA
:060800004BEF1EF0120098
:060808006AEF1BF0120074
:06081800B5EF1BF0120019
:06082A000100F43C000097
:08083000860000000B0000002F
:08083800D9CFE6FFE1CFD9FFA3
:10084000A66AFE0EDB50A96EA680A85000D0E55225
:10085000E7CFD9FF1200D9CFE6FFE1CFD9FFFE0ED7
:10086000DB50A96EFD0EDB50A86E040EA66E550E71
:10087000A76EAA0EA76EA682A6B2FED7E552E7CF54
:10088000D9FF1200FE0EE66ED7DFE552AC0802E19A
:10089000938E02D0818E939EFD0EE66ECDDFE552E3
:1008A000690805E1938C948C948E938805D08A9C7A
:1008B000939C949C949E93881200D9CFE6FFE1CF3D
:1008C000D9FF040EE126766A7E6A7F6AF18E8A9CE1
:1008D000939C8B9C949C8B9E949E9388818E939EDC
:1008E0008B9494848A9A938A94808B969496B96A0E
:1008F0008B989498CA6ECB6ABE6A2C0EBD6E8B9A8A
:10090000949AC6EC1DF09D96C69AC79EC78CC69851
:10091000C690C692C694C696D08EF28EF28C8B96F6
:10092000818E939EE80EE66E030EE66EE66AE66A38
:1009300041EC1AF0E552E552E552E552938E8B8672
:10094000DE6ADE6ADE6ADD6ADD52DD52D9CFE9FF9A
:10095000DACFEAFF200EEE5CA10EEE58070EEE583D
:10096000000EEE580CE282B00AD0D9CFE9FFDACF00
:10097000EAFFEE2A000EEE22EE22EE22E7D7939E49
:1009800082A08B967FDF020EB96E040EE15C02E25C
:10099000E16AE552E16EE552E7CFD9FF12001E0E83
:1009A000E66E010EE66EA2EC18F0E552E55200018B
:1009B0008A6B200EE66E700EE66E020EE66EE66A3A
:1009C000010EE66E48EC19F0196E050EE15E195045
:1009D000F3CF86F0F4CF87F0200EE66E900EE66E31
:1009E000020EE66EE66A010EE66E48EC19F0196E2C
:1009F000050EE15E1950F3CF88F0F4CF89F00001C5
:100A0000906B0001300E9D6F020E9E6F1200200E43
:100A10000001E76E6019E8AE02D0E73402D0E7507B
:100A2000605D03E36450020B01E001D001D81200C5
:100A3000D9CFE6FFE1CFD9FF190EE12600018A5197
:100A4000E96EEA6AD890E936EA36860EE926000EA3
:100A5000EA22EE50ED1002E1000E13D000018A519F
:100A6000E96EEA6AD890E936EA36860EE926000E83
:100A7000EA22EE50EFCFEAFFE96EEF50800B01E083
:100A8000010E000902E087EF11F0DF6A00018A51D0
:100A9000200DF3CF9BF0F4CF9CF0700E00019B274C
:100AA000020E00019C2300018A51E96EEA6AD89087
:100AB000E936EA36860EE926000EEA22EE50EFCF3E
:100AC000EAFFE96EEE52EFCF8BF09BC0E9FF9CC0CE
:100AD000EAFFEF50E76E180EE7CFDBFF00010A0ECA
:100AE000A36F180EDB50FF0A02E1E6EF10F0FA0ADE
:100AF00002E1A5EF10F0010A02E164EF10F0540AE0
:100B000002E155EF10F0190A02E148EF10F00E0A69
:100B100002E1D5EF0FF0080A02E1AAEF09F0090A95
:100B200001E1AAD0020A01E1A7D0010A01E1A4D0A3
:100B3000060A74E0010A58E0020A12E0710A02E0B3
:100B4000FCEF10F00001320EA36F9DC0E9FF9EC0C4
:100B5000EAFF180EDBCFEFFF010EDF6EFEEF10F0A5
:100B60009DC0E9FF9EC0EAFF180EDBCFEFFF1F0E0E
:100B7000E66EE66A760E196E3C0E1A6E1B6A19C096
:100B8000E6FF1AC0E6FF1BC0E6FF010E00011D6A6A
:100B90009D251C6E9E511D221CC0E6FF1DC0E6FF58
:100BA000A0EC1CF01E6E070EE15E1E501F0EE66EDE
:100BB000E66A9DC0E6FF9EC0E6FF3EEC1BF0E552F4
:100BC000E552E552E552E66E9DC0E9FF9EC0EAFFA0
:100BD000EE521E0EE926000EEA22E552E750EF6EB5
:100BE000200EDF6EFEEF10F09BC0E9FF9CC0EAFF15
:100BF000EE52EF50010B02E08B8C01D08B9C9BC01E
:100C0000E9FF9CC0EAFFEE52EF50020B02E08B8E30
:100C100001D08B9E8A8C8A9CFEEF10F09DC0E9FF6C
:100C20009EC0EAFF180EDBCFEFFF9DC0E9FF9EC01C
:100C3000EAFFEE528150100B02E0EF8401D0EF94F6
:100C40009BC0E9FF9CC0EAFFEE52EF50010B02E0AF
:100C50008B8C01D08B9C9BC0E9FF9CC0EAFFEE52BD
:100C6000EF50020B02E08B8E01D08B9E8A8C8A9C07
:100C7000020EDF6EFEEF10F00001A3699BC0E9FFDA
:100C80009CC0EAFFEE52070EEECFDBFF080EEECF60
:100C9000DBFF090EEECFDBFF0A0EEECFDBFF070E08
:100CA000DBCF19F0080EDBCF1AF0090EDBCF1BF0FB
:100CB0000A0EDBCF1CF019501A101B101C1002E199
:100CC000FEEF10F0070EDBCF04F0080EDBCF05F0CF
:100CD000090EDBCF06F00A0EDBCF07F0070E042665
:100CE000000E0522000E0622000E0722080E096ED5
:100CF0000A6A0B6A0C6AF0EC1DF00C0E04C0DBFFF4
:100D00000D0E05C0DBFF0E0E06C0DBFF0F0E07C089
:100D1000DBFF8A9C8B9CD950070FE96EDACFEAFF84
:100D2000D880080EEE54000EEE54000EEE54000E65
:100D3000EE5403E2938CC68A939C180EDB50440851
:100D400005E0180EDB50460801E07BD0200EE66E71
:100D500000018A51200DF3CF1BF0F4CF1CF0700E70
:100D60001B26020E1C221BC0E6FF1CC0E6FFE66A23
:100D7000010EE66E48EC19F01D6E050EE15E1D5089
:100D8000F3CF19F0F4CF1AF000018A51E96EEA6A44
:100D9000D890E936EA36860EE926000EEA2219C016
:100DA000EEFF1AC0EDFF00018A7100018A51E96E61
:100DB000EA6AD890E936EA36860EE926000EEA227B
:100DC000EE50ED1002E1000E13D000018A51E96EE1
:100DD000EA6AD890E936EA36860EE926000EEA225B
:100DE000EE50EFCFEAFFE96EEF50800B01E0010E0D
:100DF000000901E0DAD700018A51E96EEA6AD89069
:100E0000E936EA36860EE926000EEA22EE50EFCFEA
:100E1000EAFFE96EEE52EFCF8BF000018A51200D10
:100E2000F3CF9BF0F4CF9CF0700E00019B27020ED5
:100E300000019C23010E9BC0DBFF020E9CC0DBFF68
:100E40000BD0450EF36E180EF3CFDBFF450E0009F5
:100E500003E00001200E8B6F030E9DC0DBFF040E2C
:100E60009EC0DBFF8BC019F01A6A1B6A1C6AD9503E
:100E70000C0FE96EDACFEAFFEE50195CEE501A580B
:100E8000EE501B58EE501C5801E388D18BC019F06E
:100E90001A6A1B6A1C6AD9500C0FE96EDACFEAFF96
:100EA0001950EE5E1A50EE5A1B50EE5A1C50EE5A74
:100EB0000001A35102E10001A3698BC014F0E9CF46
:100EC00015F0EACF16F0E1CF17F0E2CF18F0180EC8
:100ED000DB50460822E1000EF66E3F0EF76EF86A10
:100EE000010EDBCFE9FF020EDBCFEAFFEECFF6FF0C
:100EF0000800F5CFC9FF00000000144E08D0EECF67
:100F0000F6FF0800C9CFF6FFF5CFC9FFF6D70000FE
:100F100000000000C9CFF6FF4FD0180EDB50440888
:100F200028E1000EF66E3F0EF76EF86A010EDBCF79
:100F3000E9FF020EDBCFEAFF030EDBCFE1FF040E79
:100F4000DBCFE2FFEECFF6FF0800F5CFC9FF0000D0
:100F50000000000000000000000000000000000091
:100F60000000C9CFF6FF0800F5CFE6FF142EEAD740
:100F700023D0000EF66E3F0EF76EF86A030EDBCF3D
:100F8000E9FF040EDBCFEAFF000EC96E000000008F
:100F9000000000000000000000000000144E07D018
:100FA000C9CFF6FFC96E0800F5CFEEFFF5D7C9CF60
:100FB000F6FF0800F5CFEEFF17C0E1FF18C0E2FF13
:100FC00015C0E9FF16C0EAFF180EDB50440804E024
:100FD000180EDB5045085EE18BC0E6FF9DC0E6FFC2
:100FE0009EC0E6FF010EE66E010EE66E48EC19F0BB
:100FF0001B6E050EE15E1B50F3CF19F0F4CF1AF013
:1010000000019051E96EEA6AD890E936EA368C0E12
:10101000E926000EEA2219C0EEFF1AC0EDFF00011A
:10102000907100019051E96EEA6AD890E936EA368B
:101030008C0EE926000EEA22EE50ED1002E1000EC1
:1010400013D000019051E96EEA6AD890E936EA3689
:101050008C0EE926000EEA22EE50EFCFEAFFE96E91
:10106000EF50800B01E0010E000901E0DAD700012A
:101070009051200DF3CF9DF0F4CF9EF0300E000183
:101080009D27020E00019E23030E9DC0DBFF040E70
:101090009EC0DBFF180EDB50440805E0180EDB5045
:1010A000460801E07AD0200EE66E00018A51200D3C
:1010B000F3CF1BF0F4CF1CF0700E1B26020E1C2287
:1010C0001BC0E6FF1CC0E6FFE66A010EE66E48ECB8
:1010D00019F01D6E050EE15E1D50F3CF19F0F4CF2F
:1010E0001AF000018A51E96EEA6AD890E936EA36C8
:1010F000860EE926000EEA2219C0EEFF1AC0EDFFA7
:1011000000018A7100018A51E96EEA6AD890E936D5
:10111000EA36860EE926000EEA22EE50ED1002E1D4
:10112000000E13D000018A51E96EEA6AD890E936C0
:10113000EA36860EE926000EEA22EE50EFCFEAFFED
:10114000E96EEF50800B01E0010E000901E0DAD7F3
:1011500000018A51E96EEA6AD890E936EA36860ECD
:10116000E926000EEA22EE50EFCFEAFFE96EEE52DA
:10117000EFCF8BF000018A51200DF3CF9BF0F4CF1D
:101180009CF0700E00019B27020E00019C23010EB3
:101190009BC0DBFF020E9CC0DBFF64D60C0EDB5055
:1011A000E76E100EE7CFDBFF100EDB50146E14500D
:1011B000010836E2180EDB50440804E0180EDB503C
:1011C000460813E1010EDBCFE9FFDB2A020EDBCF7D
:1011D000EAFF01E3DB2AEF50F76A000FF66E3F0EDD
:1011E000F7220800F550C96E01D0C96AC750E8A0BF
:1011F000FDD7C950F76A000FF66E3F0EF7220800C0
:10120000F550E66E030EDBCFE9FFDB2A040EDBCFE1
:10121000EAFF01E3DB2AE552E750EF6E1406C7D779
:101220008A9CC69A070E196E1A6A1B6A1C6AD950E4
:10123000070FE96EDACFEAFFEE501916EE501A16D4
:10124000EE501B16EE501C16140E19C0DBFF140EC8
:10125000DB5005E1080EF36E140EF3CFDBFF180E22
:10126000DB50440804E0180EDB50460811E1010E83
:10127000DBCFE9FF020EDBCFEAFFEF50F76A000F8A
:10128000F66E3F0EF7220800160EF5CFDBFF02D0F8
:10129000160EDB6A170EDB6A800EF36E130EF3CFA9
:1012A000DBFF140EDB5000082BE2140EDB0401E11F
:1012B0008B8C81A809D0170EDBCFE7FF130EDB5014
:1012C000E712170EE7CFDBFF130EDBCFE6FF160E9C
:1012D000DB50E552E71402E0010E01D0000EE8B049
:1012E0008B8EE8A08B9E8A8C8A9C140EDB06130ED4
:1012F000DBCFF3FFF390F342130EF3CFDBFFD1D735
:10130000180EDB50440804E0180EDB50450816E1C7
:10131000170EDB50F76A000FF66E3F0EF72208003B
:10132000F550E66E030EDBCFE9FF040EDBCFEAFFDC
:10133000E552E750EF6E0C0EDB50DF6EF50E00014C
:10134000A35D03E20001A36B03D0F50E0001A35FD0
:10135000FEEF10F00001A3699BC0E9FF9CC0EAFF0B
:10136000EE52070EEECFDBFF080EEECFDBFF090ECD
:10137000EECFDBFF0A0EEECFDBFF070EDBCF19F05F
:10138000080EDBCF1AF0090EDBCF1BF00A0EDBCF05
:101390001CF019501A101B101C1002E1FEEF10F087
:1013A0009BC0E9FF9CC0EAFF050EEB50E76E120EF2
:1013B000E7CFDBFF060EF36E110EF3CFDBFF110E4E
:1013C000DB5000011A6A9B25196E9C511A22050EEA
:1013D00019C0DBFF060E1AC0DBFF030E9DC0DBFF4A
:1013E000040E9EC0DBFF070EDBCF04F0080EDBCF40
:1013F00005F0090EDBCF06F00A0EDBCF07F0070E73
:101400000426000E0522000E0622000E0722080EFA
:10141000096E0A6A0B6A0C6AF0EC1DF00C0E04C02F
:10142000DBFF0D0E05C0DBFF0E0E06C0DBFF0F0E4F
:1014300007C0DBFF120EDBA20DD0D9500C0FE96EF6
:10144000DACFEAFFD890EF36010EEB36020EEB361C
:10145000030EEB36110EDBCF19F01A6A1B6A1C6AF9
:10146000D9500C0FE96EDACFEAFF1950EE261A5068
:10147000EE221B50EE221C50EE228A9C120EDBB292
:101480000BD0120EDB50040B02E0010E01D0000E57
:10149000E8B08B8CE8A08B9C120EDBB60BD0120E42
:1014A000DB50100B02E0010E01D0000EE8B08B8E75
:1014B000E8A08B9E120EDB500B0B010A03E0090A19
:1014C00001E004D0938CC68A939C01D000D08BC0DD
:1014D00019F01A6A1B6A1C6AD9500C0FE96EDACF30
:1014E000EAFFEE50195CEE501A58EE501B58EE50C1
:1014F0001C5801E3DCD28BC019F01A6A1B6A1C6A03
:10150000D9500C0FE96EDACFEAFF1950EE5E1A508F
:10151000EE5A1B50EE5A1C50EE5A0001A35102E144
:101520000001A369120EDB500B0B0B0A01E13BD14A
:10153000010A01E1DDD0030A01E182D0010A48E09D
:10154000090A01E030D1120EDB50100B02E0FF0E51
:1015500001D0000EE76E160EE7CFDBFF110EDB5059
:1015600000018B5D146EE9CF15F0EACF16F0E1CFE4
:1015700017F0E2CF18F0000EF66E3F0EF76EF86A25
:10158000030EDBCFE9FF040EDBCFEAFF000EC96ECE
:10159000000000000000000000000000000000004B
:1015A000144E07D0C9CFF6FFC96E0800F5CFEEFF85
:1015B000F5D7C9CFF6FF0800F5CFEEFF8A9C15C01E
:1015C000E9FF16C0EAFF17C0E1FF18C0E2FF5FD1D4
:1015D000110EDB5000018B5D146EE9CF15F0EACFE0
:1015E00016F0E1CF17F0E2CF18F0000EF66E3F0EC6
:1015F000F76EF86A050EDBCFE9FF060EDBCFEAFFD8
:10160000EECFF6FF0800F5CFC9FF00000000144E32
:1016100008D0EECFF6FF0800C9CFF6FFF5CFC9FF1F
:10162000F6D7000000000000C9CFF6FF8A9C15C065
:10163000E9FF16C0EAFF17C0E1FF18C0E2FF27D19B
:10164000110EDB5000018B5D146E145050E0050E3E
:10165000DBCFE9FFDB2A060EDBCFEAFF01E3DB2A63
:10166000160EEFCFDBFF170EDB6A080EF36E140EBB
:10167000F3CFDBFF010EF36E130EF3CFDBFF140E7F
:10168000DB5027E081A809D0170EDBCFE7FF130E50
:10169000DB50E712170EE7CFDBFF130EDBCFE6FFC1
:1016A000160EDB50E552E71402E0010E01D0000EE9
:1016B000E8B08B8EE8A08B9E8A8C8A9C140EDB0689
:1016C000130EDBCFF3FFF39EF346130EF3CFDBFFD6
:1016D000D6D7030EDBCFE9FFDB2A040EDBCFEAFF10
:1016E00001E3DB2A170EDBCFEFFF1406AED7CFD016
:1016F000110EDB5000018B5D146E145053E0050E8B
:10170000DBCFE9FFDB2A060EDBCFEAFF01E3DB2AB2
:10171000150EEFCFDBFF050EDBCFE9FFDB2A060E50
:10172000DBCFEAFF01E3DB2A160EEFCFDBFF080E6B
:10173000F36E140EF3CFDBFF010EF36E130EF3CF37
:10174000DBFF140EDB502BE0130EDBCFE6FF150E94
:10175000DB50E552E71402E0010E01D0000EE8B0C4
:101760008B8CE8A08B9C130EDBCFE6FF160EDB50B4
:10177000E552E71402E0010E01D0000EE8B08B8EB6
:10178000E8A08B9E8A8C8A9C140EDB06130EDBCF9E
:10179000F3FFF39EF346130EF3CFDBFFD2D7020E17
:1017A000145EABD774D0110EDB5000018B5D146E4C
:1017B00014506CE0050EDBCFE9FFDB2A060EDBCF11
:1017C000EAFF01E3DB2A150EEFCFDBFF050EDBCFCF
:1017D000E9FFDB2A060EDBCFEAFF01E3DB2A160E68
:1017E000EFCFDBFF170EDB6A080EF36E140EF3CF9C
:1017F000DBFF010EF36E130EF3CFDBFF140EDB5095
:1018000036E081A809D0170EDBCFE7FF130EDB50BF
:10181000E712170EE7CFDBFF130EDBCFE6FF150E47
:10182000DB50E552E71402E0010E01D0000EE8B0F3
:101830008B8CE8A08B9C130EDBCFE6FF160EDB50E3
:10184000E552E71402E0010E01D0000EE8B08B8EE5
:10185000E8A08B9E8A8C8A9C140EDB06130EDBCFCD
:10186000F3FFF39EF346130EF3CFDBFFC7D7030E50
:10187000DBCFE9FFDB2A040EDBCFEAFF01E3DB2A43
:10188000170EDBCFEFFF020E145E92D700D0120EC0
:10189000DBA087D0120EDBA229D0110EDB50000195
:1018A0008B5DFE0BE842E66E9DC0E6FF9EC0E6FF44
:1018B000010EE66E010EE66E48EC19F01B6E050E89
:1018C000E15E1B50F3CF19F0F4CF1AF000019051F4
:1018D000E96EEA6AD890E936EA368C0EE926000EFF
:1018E000EA2219C0EEFF1AC0EDFF26D0110EDB5020
:1018F00000018B5DE66E9DC0E6FF9EC0E6FF010E17
:10190000E66E010EE66E48EC19F01B6E050EE15E08
:101910001B50F3CF19F0F4CF1AF000019051E96E8B
:10192000EA6AD890E936EA368C0EE926000EEA22F9
:1019300019C0EEFF1AC0EDFF000190710001905137
:10194000E96EEA6AD890E936EA368C0EE926000E8E
:10195000EA22EE50ED1002E1000E13D0000190518A
:10196000E96EEA6AD890E936EA368C0EE926000E6E
:10197000EA22EE50EFCFEAFFE96EEF50800B01E074
:10198000010E000901E0DAD700019051200DF3CFDC
:101990009DF0F4CF9EF0300E00019D27020E000155
:1019A0009E23120EDBA674D0200EE66E00018A5133
:1019B000200DF3CF1BF0F4CF1CF0700E1B26020E8F
:1019C0001C221BC0E6FF1CC0E6FFE66A010EE66EA5
:1019D00048EC19F01D6E050EE15E1D50F3CF19F0B5
:1019E000F4CF1AF000018A51E96EEA6AD890E9361C
:1019F000EA36860EE926000EEA2219C0EEFF1AC06A
:101A0000EDFF00018A7100018A51E96EEA6AD890FF
:101A1000E936EA36860EE926000EEA22EE50ED108F
:101A200002E1000E13D000018A51E96EEA6AD890F3
:101A3000E936EA36860EE926000EEA22EE50EFCFAE
:101A4000EAFFE96EEF50800B01E0010E000901E0B2
:101A5000DAD700018A51200DF3CF9BF0F4CF9CF030
:101A6000700E00019B27020E00019C2300018A5189
:101A7000E96EEA6AD890E936EA36860EE926000E63
:101A8000EA22EE50EFCFEAFFE96EEE52EFCF8BF095
:101A9000050E9BC0DBFF060E9CC0DBFF030E9DC046
:101AA000DBFF040E9EC0DBFF110EDB6A10D58A9CA3
:101AB000C69A110EDBCF19F01A6A1B6A1C6AD9503C
:101AC0000C0FE96EDACFEAFF1950EE5E1A50EE5AAB
:101AD0001B50EE5A1C50EE5A120EDB500B0B0B0A29
:101AE00001E136D1010A01E1D9D0030A01E17FD039
:101AF000010A3FE0090A01E02BD10C0EDB50146E05
:101B00001450010835E2170EDB6A080EF36E140E4E
:101B1000F3CFDBFF010EF36E130EF3CFDBFF140EDA
:101B2000DB5018E081A809D0170EDBCFE7FF130EBA
:101B3000DB50E712170EE7CFDBFF8A8C8A9C140E6E
:101B4000DB06130EDBCFF3FFF39EF346130EF3CF4A
:101B5000DBFFE5D7030EDBCFE9FFDB2A040EDBCF8B
:101B6000EAFF01E3DB2A170EDBCFEFFF1406C8D72D
:101B700062D10C0EDB50146E1450010837E2050ED2
:101B8000DBCFE9FFDB2A060EDBCFEAFF01E3DB2A2E
:101B9000160EEFCFDBFF080EF36E140EF3CFDBFF54
:101BA000010EF36E130EF3CFDBFF140EDB501CE0BF
:101BB000130EDBCFE6FF160EDB50E552E71402E012
:101BC000010E01D0000EE8B08B8EE8A08B9E8A8CAF
:101BD0008A9C140EDB06130EDBCFF3FFF39EF34655
:101BE000130EF3CFDBFFE1D71406C6D724D10C0EBA
:101BF000DB50146E1450010850E2050EDBCFE9FFF4
:101C0000DB2A060EDBCFEAFF01E3DB2A160EEFCF5D
:101C1000DBFF170EDB6A080EF36E140EF3CFDBFF4B
:101C2000010EF36E130EF3CFDBFF140EDB5027E033
:101C300081A809D0170EDBCFE7FF130EDB50E712A8
:101C4000170EE7CFDBFF130EDBCFE6FF160EDB50E0
:101C5000E552E71402E0010E01D0000EE8B08B8ED1
:101C6000E8A08B9E8A8C8A9C140EDB06130EDBCFB9
:101C7000F3FFF39EF346130EF3CFDBFFD6D7030E2D
:101C8000DBCFE9FFDB2A040EDBCFEAFF01E3DB2A2F
:101C9000170EDBCFEFFF1406ADD7CDD00C0EDB5007
:101CA000146E1450020853E2050EDBCFE9FFDB2A65
:101CB000060EDBCFEAFF01E3DB2A150EEFCFDBFFD9
:101CC000050EDBCFE9FFDB2A060EDBCFEAFF01E3DF
:101CD000DB2A160EEFCFDBFF080EF36E140EF3CFE8
:101CE000DBFF010EF36E130EF3CFDBFF140EDB50A0
:101CF0002BE0130EDBCFE6FF150EDB50E552E714A9
:101D000002E0010E01D0000EE8B08B8CE8A08B9CA5
:101D1000130EDBCFE6FF160EDB50E552E71402E0B0
:101D2000010E01D0000EE8B08B8EE8A08B9E8A8C4D
:101D30008A9C140EDB06130EDBCFF3FFF39EF346F3
:101D4000130EF3CFDBFFD2D7020E145EAAD773D0E7
:101D50000C0EDB50146E145002086CE2050EDBCF43
:101D6000E9FFDB2A060EDBCFEAFF01E3DB2A150ED3
:101D7000EFCFDBFF050EDBCFE9FFDB2A060EDBCF63
:101D8000EAFF01E3DB2A160EEFCFDBFF170EDB6A5B
:101D9000080EF36E140EF3CFDBFF010EF36E130E7D
:101DA000F3CFDBFF140EDB5036E081A809D0170E0D
:101DB000DBCFE7FF130EDB50E712170EE7CFDBFF99
:101DC000130EDBCFE6FF150EDB50E552E71402E001
:101DD000010E01D0000EE8B08B8CE8A08B9C130E96
:101DE000DBCFE6FF160EDB50E552E71402E0010EF2
:101DF00001D0000EE8B08B8EE8A08B9E8A8C8A9C66
:101E0000140EDB06130EDBCFF3FFF39EF346130E27
:101E1000F3CFDBFFC7D7030EDBCFE9FFDB2A040ECE
:101E2000DBCFEAFF01E3DB2A170EDBCFEFFF020E69
:101E3000145E91D700D0070E196E1A6A1B6A1C6ACD
:101E4000D950070FE96EDACFEAFFEE501916EE50BF
:101E50001A16EE501B16EE501C16140E19C0DBFF9E
:101E6000140EDB5005E1080EF36E140EF3CFDBFF0A
:101E7000120EDBA20CD0050EDBCFE9FFDB2A060E2B
:101E8000DBCFEAFF01E3DB2A150EEFCFDBFF120EFB
:101E9000DBA60AD0050EDBCFE9FF060EDBCFEAFF9B
:101EA000160EEFCFDBFF0BD0120EDB50100B02E053
:101EB000FF0E01D0000EE76E160EE7CFDBFF170E08
:101EC000DB6A010EF36E130EF3CFDBFF140EDB5053
:101ED00039E081A809D0170EDBCFE7FF130EDB50E6
:101EE000E712170EE7CFDBFF120EDBA20FD0130EA7
:101EF000DBCFE6FF150EDB50E552E71402E0010EE2
:101F000001D0000EE8B08B8CE8A08B9C130EDBCFC9
:101F1000E6FF160EDB50E552E71402E0010E01D099
:101F2000000EE8B08B8EE8A08B9E8A8C8A9C140EE3
:101F3000DB06130EDBCFF3FFF39EF346130EF3CF56
:101F4000DBFFC4D7120EDBA025D0030EDBCFE9FFE9
:101F5000040EDBCFEAFF170EDBCFEFFF120EDBA282
:101F600016D00C0EDBCF04F00D0EDBCF05F00E0EFD
:101F7000DBCF06F00F0EDBCF07F0020E096E0A6A08
:101F80000B6A0C6AF0EC1DF00450DF6E03D00C0EEF
:101F9000DB50DF6EF50E0001A35D03E20001A36BD1
:101FA00003D0F50E0001A35F29D19BC0E9FF9CC0BF
:101FB000EAFFEE52D880550EEE54150EEE54000E88
:101FC000EE54000EEE5436E29BC0E9FF9CC0EAFFDF
:101FD000EE52EECF19F0EECF1AF0EECF1BF0EFCFAE
:101FE0001CF0550E096E150E0A6E0B6A0C6A19C0AC
:101FF00004F01AC005F01BC006F01CC007F0F0EC9E
:102000001DF004C019F005C01AF006C01BF007C08F
:102010001CF0192A000E1A22000E1B22000E1C2290
:1020200019C09FF01AC0A0F000019F51A01101E05B
:10203000FBD71AD09BC0E9FF9CC0EAFFEE52EECF5F
:1020400010F0EECF11F0EECF12F0EFCF13F01050F2
:1020500011101210131008E08A7C8A7C1006000E02
:10206000115A125A135AF3D7050EE66EE66A9BC050
:10207000E6FF9CC0E6FF9DC0E6FF9EC0E6FF75EC54
:102080001CF0196E060EE15E1950050EDF6EB6D01B
:102090009BC0E9FF9CC0EAFFEE52EF50010B02E04B
:1020A0008B8601D08B96DF6AA9D09BC0E9FF9CC0CC
:1020B000EAFF010EEB50000902E0938E02D0818E00
:1020C000939E020EDF6E9AD09BC0E9FF9CC0EAFF90
:1020D000EF50E66E9DC0E9FF9EC0EAFFE552E75073
:1020E000EF6E146A9BC0E9FF9CC0EAFF010EEB5043
:1020F000145C27E29BC0E9FF9CC0EAFF020EE926C0
:10210000000EEA22EF501424E66E1CEC04F0E552B7
:10211000E66E9DC0E9FF9EC0EAFF050EE926000EAF
:10212000EA22E9CF19F0EACF1AF014500F0119246E
:10213000E96E000E1A20EA6EE552E750EF6E142A9F
:10214000D1D7050E1424DF6E59D09BC0E9FF9CC087
:10215000EAFFEF50E66E9DC0E9FF9EC0EAFFE55240
:10216000E750EF6E146A9BC0E9FF9CC0EAFF010EC6
:10217000EB50145C26E29BC0E9FF9CC0EAFF050E11
:10218000E926000EEA22E9CF19F0EACF1AF014503E
:102190000F011924E96E000E1A20EA6EEF50E66E68
:1021A0009BC0E9FF9CC0EAFF020EE926000EEA226E
:1021B000EF501424E66E2BEC04F0E552E552142A9D
:1021C000D2D742EC04F0010EDF6E18D0649610688E
:1021D0001168126A136A10681168126A136A105043
:1021E00011101210131006E01006000E115A125AA8
:1021F000135AF5D7FF0002D0DF6A00D0200EE66E3A
:1022000000018A51200DF3CF1BF0F4CF1CF0700EAB
:102210001B26020E1C221BC0E6FF1CC0E6FFE66A5E
:10222000010EE66E48EC19F01D6E050EE15E1D50C4
:10223000F3CF19F0F4CF1AF000018A51E96EEA6A7F
:10224000D890E936EA36860EE926000EEA2219C051
:10225000EEFF1AC0EDFF00018A71DF5058E0DFCFBA
:10226000E6FF9DC0E6FF9EC0E6FF010EE66E010E92
:10227000E66E48EC19F01B6E050EE15E1B50F3CFC5
:1022800019F0F4CF1AF000019051E96EEA6AD89083
:10229000E936EA368C0EE926000EEA2219C0EEFF76
:1022A0001AC0EDFF0001907100019051E96EEA6AD9
:1022B000D890E936EA368C0EE926000EEA22EE5076
:1022C000ED1002E1000E13D000019051E96EEA6AB0
:1022D000D890E936EA368C0EE926000EEA22EE5056
:1022E000EFCFEAFFE96EEF50800B01E0010E00092D
:1022F00001E0DAD700019051200DF3CF9DF0F4CF2B
:102300009EF0300E00019D27020E00019E23190E43
:10231000E15C02E2E16AE552E16EE552E7CFD9FF06
:022320001200A9
:0E232200D9CFE6FFE1CFD9FFE652A0940F011C
:102330005F6B626A160E616E9F0E5B6F7B0E606E46
:10234000648C5C6B010EE66EE66AE66A540EE66E1D
:102350000F0EE66EC3EC1CF0196E050EE15E19500F
:10236000649CDF6ADF50196E1A6A080E195C000E51
:102370001A5810E2DF50040DF3CFE9FFF4CFEAFF63
:10238000000EE926020EEA22EE6AEE6AEE6AEE6AB4
:10239000DF2AE8D70F01160E536F62A602D06296AD
:1023A000FCD70001736B786B796B7A6B6498DF6A8A
:1023B000020EDF5C18E2EA6ADF34FE0BEA36E96EF1
:1023C0006B0EE926000EEA22EE6AED6AEA6ADF3455
:1023D000FE0BEA36E96E670EE926000EEA22EE6A87
:1023E000ED6ADF2AE5D70001080E6B6F020E6C6FF5
:1023F000616B606BE552E552E7CFD9FF1200D9CF90
:10240000E6FFE1CFD9FFE6520001600507E164BABB
:1024100005D0626A60806088020E606F6250040BB3
:1024200005E06050040B02E06294BCD864A202D0C4
:10243000A19487D06250010B16E06050010B13E0AD
:1024400070DFD08EA284A084F28E0001040E606F33
:102450000201200E026F020E036F080E016F006B67
:102460008C0E001362906250100B05E06050100B50
:1024700002E086D862986250400B13E06050400B37
:1024800010E0010EE66EE66A000EE66EE66A730E76
:10249000E66EE66A29EC1CF0196E060EE15E195034
:1024A000629C6250200B04E06050200B01E04ED88B
:1024B0006250020B14E06050020B11E0010EE66E58
:1024C000E66A000EE66EE66AE6687F0EE66E29ECC6
:1024D0001CF0196E060EE15E19500F015F6B040EC1
:1024E0000001E76E6019E8AE02D0E73402D0E75091
:1024F000605D02E2A19425D060A622D0DF6A040EBE
:10250000DF5C1EE262A61BD063CF80F06296780E7D
:102510000001801502E15BD810D0000EE66EE66A7D
:10252000800EE66E000EE66E720EE66EE66A29EC2E
:102530001CF0196E060EE15E1950DF2AE0D700D0BC
:10254000A194E552E552E7CFD9FF12000F0153A144
:1025500015D063C0E9FF64C0EAFFEF5080080DE1C9
:102560006BC0E9FF6CC0EAFFEF50840806E163C06E
:10257000E9FF64C0EAFF8C0EEF6E5391629A12007D
:10258000608462986482000EE66EE66AE66EE66A31
:10259000750EE66EE66A29EC1CF0196E060EE15E19
:1025A00019501200000EE66EE66AE66EE66A740ED8
:1025B000E66EE66A29EC1CF0196E060EE15E195013
:1025C0006492609462A402D06294FCD71200D9CFC6
:1025D000E6FFE1CFD9FFE652FD0E000180155AE17A
:1025E0007E0E8015E8407F0B040DF3CF63F0F4CF2F
:1025F00064F0000E6327020E642363C065F064C0BC
:1026000066F0657563C0E9FF64C0EAFFEF503C0BFC
:10261000E842E8420D083CE163C0E9FF64C0EAFF1C
:10262000020EE926000EEA22EECF19F0EFCF1AF0E3
:10263000280E191802E1020E1A1828E163C0E9FFFA
:1026400064C0EAFF020EE926000EEA22200EEE6EBA
:10265000020EED6EDF6ADF50196E1A6A080E195C01
:10266000000E1A5813E2DF50EA6A280FE96E020ED4
:10267000EA22EF50E66EDF50EA6A200FE96E020EA2
:10268000EA22E552E750EF6EDF2AE5D70DD801D0F8
:102690002ED805D0FD0E8015040801E14ED8E55274
:1026A000E552E7CFD9FF12006BC0E9FF6CC0EAFF2B
:1026B000EF50800B05E06BC0E9FF6CC0EAFFEF6AEA
:1026C00000016F6B706B746B756B736BB9D8000E18
:1026D000E66EE66AE66EE66A030EE66EE66A29ECE8
:1026E0001CF0196E060EE15E1950D1EF15F0020EC6
:1026F0000001705D02E1B5DB1FD06FD80001815190
:102700001AE165C0E9FF66C0EAFFEE52080EEF6EFF
:1027100065C0E9FF66C0EAFF020EE926000EEA2264
:10272000200EEE6E020EED6E65C0E9FF66C0EAFF98
:102730008C0EEF6E01D0816B1200D9CFE6FFE1CF96
:10274000D9FFE6526BC0E9FF6CC0EAFFEF50400BC7
:1027500001E0010EDF6E00016B75080E605D0DE19A
:1027600022C25CFF0F015C51000804E20001100E60
:10277000606F03D00001040E606F700528E16BC02C
:10278000E9FF6CC0EAFF020EE926000EEA22280EDD
:10279000EE6E020EED6EDADA020E00016F5D07E1F9
:1027A0006BC0E9FF6CC0EAFF840EEF6E0FD0DF5004
:1027B00007E16BC0E9FF6CC0EAFFC80EEF6E06D000
:1027C0006BC0E9FF6CC0EAFF880EEF6E01D005D840
:1027D000E552E552E7CFD9FF1200D9CFE6FFE1CFAE
:1027E000D9FF020EE1260001706B6BC0E9FF6CC0DF
:1027F000EAFFEF6A040E6B19196E6CC01AF019C06B
:10280000DEFF1AC0DDFFDECFE9FFDDCFEAFFEF6AB2
:1028100078AF0CD07B517C1107E005D07CC0FAFF6B
:1028200000017B51F96EFADF0001789F020EE15C36
:1028300002E2E16AE552E16EE552E7CFD9FF12000C
:1028400002012051600BE842E842E842E842E842D7
:10285000000901E058D021510C0A54E00B0A43E072
:102860000C0A35E0010A26E00B0A22E0020A20E009
:10287000030A1CE0080A10E0010A0CE00F0A08E055
:10288000030A01E03FD00001738F080E606F3BD058
:10289000C7D839D083DB37D00001610E716F000ECD
:1028A000726F7381010E746F738F2DD019D92BD075
:1028B0002BD829D024510001716F726B620E7127E1
:1028C000000E72237381010E746F738F1CD0000190
:1028D000738F02012451EA6A620FE96E000EEA2248
:1028E00022C2EFFF10D0000EE66EE66AE66EE66AE0
:1028F000020EE66EE66A29EC1CF0196E060EE15E29
:10290000195001D000D01200D9CFE6FFE1CFD9FF96
:10291000040EE1260201220510E120511F0B0009DF
:102920000CE10001738F030E0201215D04E100013F
:10293000010E7F6F02D000017F6B0201225166E120
:1029400020511F0B020862E124510F0B00095EE0C9
:102950000001738F020124BF10D024510F0BE96EC8
:10296000EA6AD890E936EA36670EE926000EEA22CE
:10297000EECFDEFFEDCFDDFF0FD024510F0BE96E60
:10298000EA6AD890E936EA366B0EE926000EEA22AA
:10299000EECFDEFFEDCFDDFF030E215D07E1DECFE1
:1029A000E9FFDDCFEAFF840EEF6E30D024510F0B2C
:1029B0001A6A530F196E0F0E1A22020E19C0DBFF8E
:1029C000030E1AC0DBFF020EDBCFE9FF030EDBCFE5
:1029D000EAFFEF9024AF0DD0DECFE9FFDDCFEAFFB5
:1029E000EF6ADF74DECFE9FFDDCFEAFF400EEF6E66
:1029F0000DD0DECFE9FFDDCFEAFF880EEF6EDF748A
:102A0000DECFE9FFDDCFEAFFC80EEF6E040EE15C1A
:102A100002E2E16AE552E16EE552E7CFD9FF12002A
:102A2000800E0201205D5BE10001C00E736F0201A8
:102A30002351030A34E0010A0EE0030A03E0000117
:102A4000736B4DD00001BA0E716F390E726F120E9A
:102A5000746F756B44D02251F66EF76AD890F636D3
:102A6000F736760EF6263A0EF7220900F5CF71F00A
:102A70000A00F5CF72F0020E0001F76A7125F66EBA
:102A80007251F7220800F5CF74F0030EF76A712532
:102A9000F66E7251F7220800F5CF75F020D0030EC4
:102AA000225D1AE22251F66EF76AD890F636F736B2
:102AB000780EF6263A0EF7220900F5CF71F00A00DB
:102AC000F5CF72F071C0F6FF72C0F7FF0800F55045
:102AD0000001746F756B02D00001736B00D012009F
:102AE000D9CFE6FFE1CFD9FF020EE1260201286B24
:102AF000296B20511F0B020A12E0030A0DE0010AA4
:102B000001E03BD00001738F0201288100017F05A5
:102B100002E10201288331D00001738F2ED0000121
:102B2000738F020124BF10D024510F0BE96EEA6AA3
:102B3000D890E936EA36670EE926000EEA22EECF93
:102B4000DEFFEDCFDDFF0FD024510F0BE96EEA6AF7
:102B5000D890E936EA366B0EE926000EEA22EECF6F
:102B6000DEFFEDCFDDFFDECFE9FFDDCFEAFFEF5087
:102B7000040B02E0010E286F00D0000173AF07D0F4
:102B8000280E716F020E726F7381020E746F020E47
:102B9000E15C02E2E16AE552E16EE552E7CFD9FF7E
:102BA00012006498000173BF4AD078AF28D0020E9B
:102BB000706F6BC0E9FF6CC0EAFFEE52EF6A6BC04A
:102BC000E9FF6CC0EAFFC80EEF6E65C0E9FF66C0A2
:102BD000EAFFEE52080EEF6E65C0E9FF66C0EAFF3D
:102BE000020EE926000EEA22280EEE6E020EED6EAF
:102BF00065C0E9FF66C0EAFFC80EEF6E1FD065C072
:102C0000E9FF66C0EAFFEE52080EEF6E65C0E9FF0D
:102C100066C0EAFF020EE926000EEA22200EEE6EE2
:102C2000020EED6E65C0E9FF66C0EAFF8C0EEF6E26
:102C30006BC0E9FF6CC0EAFF840EEF6E86D078BFF0
:102C400084D0020120AF59D0000174510201265DE9
:102C5000000175510201275904E226C274F027C20F
:102C600075F074D80001010E706F65C0E9FF66C091
:102C7000EAFFEE52080EEF6E65C0E9FF66C0EAFF9C
:102C8000020EE926000EEA22200EEE6E020EED6E16
:102C900065C0E9FF66C0EAFF800EEF6E816B63C01E
:102CA000E9FF64C0EAFFEE52080EEF6E63C0E9FF71
:102CB00064C0EAFF020EE926000EEA22200EEE6E44
:102CC000020EED6E63C0E9FF64C0EAFF840EEF6E92
:102CD000010E816F6BC0E9FF6CC0EAFF020EE926AE
:102CE000000EEA22280EEE6E020EED6E6BC0E9FFBA
:102CF0006CC0EAFFC80EEF6E28D00001020E706FA4
:102D00006BC0E9FF6CC0EAFFEE52EF6A6BC0E9FFEF
:102D10006CC0EAFFC80EEF6E65C0E9FF66C0EAFF4F
:102D2000EE52080EEF6E65C0E9FF66C0EAFF020EC4
:102D3000E926000EEA22280EEE6E020EED6E65C048
:102D4000E9FF66C0EAFFC80EEF6E1200D9CFE6FFBA
:102D5000E1CFD9FF020EE1260001080E745D000EDE
:102D600075590EE274C0DEFF75C0DDFF6F5103E1DF
:102D7000010E6F6F04D06F0502E1020E6F6F03D07A
:102D8000080EDE6EDD6A6BC0E9FF6CC0EAFFEF92F1
:102D90006BC0E9FF6CC0EAFFEF906BC0E9FF6CC04D
:102DA000EAFF010EDB50EF126BC0E9FF6CC0EAFFD7
:102DB000EE52DFCFEFFF000EDB50745F010EDB50F1
:102DC000755B280E7D6F020E7E6F73B121D0D9CF57
:102DD000E9FFDACFEAFFEE50ED1019E071C0F6FF1F
:102DE00072C0F7FF712B000E72230800F550E66EDB
:102DF0007DC0E9FF7EC0EAFF7D2B000E7E23E552F9
:102E0000E750EF6EDF06010E01E2DB06E0D71FD0D0
:102E1000D9CFE9FFDACFEAFFEE50ED1018E071C02C
:102E2000E9FF72C0EAFF712B000E7223EF50E66ECD
:102E30007DC0E9FF7EC0EAFF7D2B000E7E23E552B8
:102E4000E750EF6EDF06010E01E2DB06E1D7020E6E
:102E5000E15C02E2E16AE552E16EE552E7CFD9FFBB
:102E60001200D9CFE6FFE1CFD9FF020EE12663C001
:102E7000E9FF64C0EAFFEE52EFCFDFFFDFCF19F0CA
:102E800019500001795D000E7A5902E279C0DFFF26
:102E9000DF50196E1A6A1950795D796F1A507A5994
:102EA0007A6F010EDB6ADF50F36E010EDBCFF4FFA9
:102EB000F350F45C16E2010EDB50EA6A280FE96E6B
:102EC000020EEA22EF50E66E76C0E9FF77C0EAFF15
:102ED000762B000E7723E552E750EF6E010EDB2ACA
:102EE000E2D7000ED8807955000E7A5528E265C0E9
:102EF000E9FF66C0EAFFEE52080EEF6E65C0E9FF1B
:102F000066C0EAFF020EE926000EEA22280EEE6EE7
:102F1000020EED6E63C0E9FF64C0EAFFEF50400BA4
:102F200007E165C0E9FF66C0EAFFC80EEF6E06D094
:102F300065C0E9FF66C0EAFF880EEF6E25D065C068
:102F4000E9FF66C0EAFFEE52080EEF6E65C0E9FFCA
:102F500066C0EAFF020EE926000EEA22200EEE6E9F
:102F6000020EED6E65C0E9FF66C0EAFF840EEF6EEB
:102F70007B517C1107E005D07CC0FAFF00017B513A
:102F8000F96EFADF0001789F020EE15C02E2E16A6D
:102F9000E552E16EE552E7CFD9FF1200D9CFE6FF47
:102FA000E1CFD9FFE6520001738F010EE66EE66AAB
:102FB000E66A540EE66E0F0EE66EC3EC1CF0196E58
:102FC000050EE15E1950DF6ADF50196E1A6A080EAD
:102FD000195C000E1A5810E2DF50040DF3CFE9FF20
:102FE000F4CFEAFF000EE926020EEA22EE6AEE6A4C
:102FF000EE6AEE6ADF2AE8D7648C010EE66EE66AB6
:10300000E66A620EE66E000EE66EC3EC1CF0196E08
:10301000050EE15E1950649C0001080E6B6F020EF4
:103020006C6F000E636F020E646F63C065F064C066
:1030300066F022C261F0615103E1100E606F13D09F
:10304000010EE66EE66A610EE66E000EE66E010E99
:10305000E66EE66A29EC1CF0196E060EE15E195068
:103060000001200E606FE552E552E7CFD9FF120054
:10307000D9CFE6FFE1CFD9FF020EE126000EDE6ECA
:10308000020EDD6EFD0EDB50E8241B6EFE0EDB50E3
:10309000040DF3501B24040DF350196E1A6A020E2E
:1030A0000F0B05E0D8901A321932E806FBE1D890F0
:1030B00019361A36D89019361A36D9CFE9FFDACF31
:1030C000EAFF1950EE261A50ED22DECFE9FFDDCFE0
:1030D000EAFFEF9EFD0EDB500FE1FE0EEA6ADB34E5
:1030E000FE0BEA36E96E670EE926000EEA22DECF15
:1030F000EEFFDDCFEDFF0ED0FE0EEA6ADB34FE0BF5
:10310000EA36E96E6B0EE926000EEA22DECFEEFF0C
:10311000DDCFEDFFDECFE9FFDDCFEAFFEF9CDECFB5
:10312000E9FFDDCFEAFF040EE926000EEA22EF8C6C
:10313000020EE15C02E2E16AE552E16EE552E7CFA0
:10314000D9FF1200D9CFE6FFE1CFD9FF020EE12669
:10315000FE0EDB501A6A530F196E0F0E1A2219C099
:10316000DEFF1AC0DDFFDECFE9FFDDCFEAFFFD0E97
:10317000DBCFEFFFDBA407D0E66AFE0EDBCFE6FF76
:1031800077DFE552E552FD0EDBA208D0010EE66EB8
:10319000FE0EDBCFE6FF6CDFE552E552020EE15C8E
:1031A00002E2E16AE552E16EE552E7CFD9FF120093
:1031B000D9CFE6FFE1CFD9FF020EE126FE0EDB50AC
:1031C00020E165C0E9FF66C0EAFFEE52080EEF6E2F
:1031D00065C0E9FF66C0EAFF020EE926000EEA229A
:1031E000200EEE6E020EED6E65C0E9FF66C0EAFFCE
:1031F0008C0EEF6E6BC0E9FF6CC0EAFF840EEF6EC1
:103200003DD0FD0EDB50E8241B6EFE0EDB50040D9E
:10321000F3501B24040DF3CF19F0F4CF1AF0000E75
:103220001926020E1A2219C0DEFF1AC0DDFF840E15
:10323000196EDECFE9FFDDCFEAFF1950EF12FD0E68
:10324000DB50E8241B6EFE0EDB50040DF3501B24F4
:10325000010F040DF3CF19F0F4CF1AF0000E192668
:10326000020E1A2219C0DEFF1AC0DDFF840E196E8D
:10327000DECFE9FFDDCFEAFF1950EF12020EE15C6D
:1032800002E2E16AE552E16EE552E7CFD9FF1200B2
:10329000D9CFE6FFE1CFD9FF020EE126FD0EDB50CC
:1032A0000FE0FE0EEA6ADB34FE0BEA36E96E6B0EC7
:1032B000E926000EEA22EECFDEFFEDCFDDFF0ED0D5
:1032C000FE0EEA6ADB34FE0BEA36E96E670EE9268B
:1032D000000EEA22EECFDEFFEDCFDDFFD9CFE9FF12
:1032E000DACFEAFFEE50ED1003E1F36AF46A49D059
:1032F000DECFE9FFDDCFEAFF020EE926000EEA226B
:10330000FB0EDBCFEEFFFC0EDBCFEDFFDECFE9FFE8
:10331000DDCFEAFFEE52FA0EDBCFEFFF400E196E63
:10332000DECFE9FFDDCFEAFF1950EF16880E196EE8
:10333000DECFE9FFDDCFEAFF1950EF12FD0EDB50C3
:103340000CE0FE0EEA6ADB34FE0BEA36E96E6B0E29
:10335000E926000EEA22EF740BD0FE0EEA6ADB3497
:10336000FE0BEA36E96E670EE926000EEA22EF74DC
:10337000DECF19F0DDCF1AF019C0F3FF1AC0F4FF49
:1033800000D0020EE15C02E2E16AE552E16EE55234
:10339000E7CFD9FF1200D9CFE6FFE1CFD9FF64A86C
:1033A0004ED0FE0EEA6ADB34FE0BEA36E96E6B0E97
:1033B000E926000EEA22EE50EFCFEAFFE96E400E5A
:1033C000EE16EE6AEE6AEE6AFE0EEA6ADB34FE0B79
:1033D000EA36E96E6B0EE926000EEA22EE50EFCFD8
:1033E000EAFFE96EEE7CFE0EEA6ADB34FE0BEA369B
:1033F000E96E6B0EE926000EEA22EF74400E196E9C
:10340000FE0EEA6ADB34FE0BEA36E96E6B0EE92645
:10341000000EEA22EE50EFCFEAFFE96E1950EF16E8
:10342000FE0EEA6ADB34FE0BEA36E96E6B0EE92625
:10343000000EEA22EE50EFCFEAFFE96EEF7CE55294
:10344000E7CFD9FF1200646A606A0001606B00D0A8
:1034500012000001605114E1646A606A160E616E28
:103460000F019F0E5B6F7B0E606ED08EA284A084D6
:10347000F28E64B602D06486FCD70001010E606F44
:02348000120038
:0E348200D9CFE6FFE1CFD9FF040EE126FB0E05
:10349000DBCF04F0FC0EDBCF05F0FD0EDBCF06F03A
:1034A000FE0EDBCF07F00C0E096E0A6A0B6A0C6A7F
:1034B0008EEC1DF000C0DEFF01C0DEFF02C0DEFFAB
:1034C00003C0DDFFDD52DD52D9CFE9FFDACFEAFFDD
:1034D0000A0EEE5C000EEE58000EEE58000EEE588E
:1034E00001E2C2D0D9CFE9FFDACFEAFFF60EEE5CF7
:1034F000000EEE58000EEE58000EEE5819E2D9CF2D
:10350000E9FFDACFEAFFEECF04F0EECF05F0EECF21
:1035100006F0EFCF07F00A0E096E0A6A0B6A0C6A12
:10352000F0EC1DF00450E66E67EC1EF0E5529CD006
:10353000D9CFE9FFDACFEAFF9C0EEE5C000EEE5821
:10354000000EEE58000EEE5819E2D9CFE9FFDACF9F
:10355000EAFFEECF04F0EECF05F0EECF06F0EFCFAE
:1035600007F0640E096E0A6A0B6A0C6AF0EC1DF033
:103570000450E66E59EC1EF0E55276D0D9CFE9FF43
:10358000DACFEAFF180EEE5CE40EEE58000EEE58AD
:10359000000EEE581AE2D9CFE9FFDACFEAFFEECFFC
:1035A00004F0EECF05F0EECF06F0EFCF07F0E80E17
:1035B000096E030E0A6E0B6A0C6AF0EC1DF00450E3
:1035C000E66E2BEC1EF0E5524FD0D9CFE9FFDACFF3
:1035D000EAFFD880100EEE54270EEE54000EEE5483
:1035E000000EEE5411E2010EE66E14EC1EF0E552F0
:1035F000D9CFE9FFDACFEAFF100EEE5E270EEE5AC2
:10360000000EEE5AEE5AE1D7D9CFE9FFDACFEAFF42
:10361000EECF19F0EECF1AF0EECF1BF0EFCF1CF08B
:103620000C0E096E0A6A0B6A0C6A19C004F01AC003
:1036300005F01BC006F01CC007F0F0EC1DF004C044
:1036400019F005C01AF006C01BF007C01CF019C025
:10365000E6FF1AC0E6FF1BC0E6FF1CC0E6FF11DF55
:10366000E552E552E552E552040EE15C02E2E16A00
:10367000E552E16EE552E7CFD9FF1200D9CFE6FF60
:10368000E1CFD9FFE652DF6AD950FB0FE96EFF0E9A
:10369000DA20EA6E000ED880EE54000EED5411E2EE
:1036A000FD0EDBCFE9FFDB2AFE0EDBCFEAFF01E3F5
:1036B000DB2AEF50DF26FB0EDB06FC0E01E2DB0609
:1036C000E3D7FF0EDF02F35000D0E552E552E7CF1B
:0436D000D9FF12000C
:0C36D400DACFE4FFE2CFDAFFE9CFE4FF39
:1036E000EACFE4FFF6CFE4FFF7CFE4FFF5CFE4FF46
:1036F000F3CFE4FFF4CFE4FFFACFE4FF00EE00F0F5
:10370000100EE80403E3EECFE4FFFBD700EE19F060
:10371000060EE80403E3EECFE4FFFBD7E652FFEC2E
:1037200011F0E55200EE1EF0060EE80403E3E5CFCB
:10373000EDFFFBD700EE0FF0100EE80403E3E5CF3A
:10374000EDFFFBD7E5CFFAFFE5CFF4FFE5CFF3FFC1
:10375000E5CFF5FFE5CFF7FFE5CFF6FFE5CFEAFFD1
:10376000E5CFE9FFE5CFDAFF1100D8CFE4FFE0CFE6
:10377000E4FFE46EDACFE4FFE2CFDAFFE9CFE4FF63
:10378000EACFE4FFF6CFE4FFF7CFE4FFF5CFE4FFA5
:10379000F3CFE4FFF4CFE4FFFACFE4FF00EE00F054
:1037A000100EE80403E3EECFE4FFFBD700EE19F0C0
:1037B000060EE80403E3EECFE4FFFBD7E652CEECBF
:1037C0001DF0E55200EE1EF0060EE80403E3E5CF1F
:1037D000EDFFFBD700EE0FF0100EE80403E3E5CF9A
:1037E000EDFFFBD7E5CFFAFFE5CFF4FFE5CFF3FF21
:1037F000E5CFF5FFE5CFF7FFE5CFF6FFE5CFEAFF31
:10380000E5CFE9FFE5CFDAFFE550E5CFE0FFE5CF13
:10381000D8FF100006D829EC1AF007EC05F0FDD708
:1038200012005DEC04F091EF11F012001200120092
:1038300012001200120064840001080EA16F070E2E
:10384000A26FA107000EA25BA151A211FAE164943C
:103850001200D9CFE6FFE1CFD9FFFD0EDBCF06F096
:10386000FE0EDBCF07F0720E061801E1075034E0C0
:10387000E868061802E17F0E07182CE0740E06189F
:1038800001E1075025E0750E061801E107501EE022
:10389000730E061801E1075017E0030E061801E148
:1038A000075010E0020E061801E1075009E0010E72
:1038B000061801E1075001E011D0CFEC04F00FD061
:1038C000B9DF0DD0B6DF0BD0B2DF09D0AEDF07D045
:1038D000ADDF05D0ADDF03D0000001D000D0010E78
:0A38E00000D0E552E7CFD9FF120037
:0638EA00D9CFE6FFDACFA2
:1038F000E6FFFA0EE3CFD9FFFB0EE3CFDAFFFC0EB3
:10390000E3CFE9FFFD0EE3CFEAFFE9CFF3FFEACF14
:10391000F4FFF80EE35003E1F90EE35008E0F80E6F
:10392000E30602E2F90EE306DECFEEFFF2D7FF0E6A
:10393000E3CFDAFFE552FF0EE3CFD9FFE5521200E5
:10394000FB0EE3CFF6FFFC0EE3CFF7FFFD0EE3CF58
:10395000F8FFFE0EE3CFE9FFFF0EE3CFEAFFE9CF6A
:10396000F3FFEACFF4FFF90EE35003E1FA0EE35060
:1039700009E0F90EE30602E2FA0EE3060900F5CFCC
:10398000EEFFF1D71200FE0EE3CFE9FFFF0EE3CF0B
:10399000EAFFE9CFF3FFEACFF4FFFB0EE35003E1C8
:1039A000FC0EE35009E0FB0EE30602E2FC0EE30628
:0A39B000FD0EE350EE6EF1D7120099
:0639BA00120100020000F2
:1039C0000008D8048CFF0001010200010902200058
:1039D00001010080320904000002FFFFFF0007051B
:1039E00001022000010705810220000104030904EF
:1039F0004A035800200045006E00670069006E0011
:103A000065006500720069006E00670020005300C9
:103A10006F0066007400770061007200650020008E
:103A2000530079007300740065006D00730020007E
:103A300043006F00720070002E003C0358007500B8
:103A40004C00410020002D0020005800450053008C
:103A5000530020004D006900630072006F002000D9
:103A60004C006F0067006900630020004100720095
:0E3A7000720061007900CC39EC39F0393A3A35
:023A7E002A0E0E
:103A8000F66E080EF76E000EF86E00010900F55094
:103A9000966F0900F550976F03E1966701D03DD00E
:103AA0000900F550916F0900F550926F0900F5502B
:103AB000936F09000900F550E96E0900F550EA6EB0
:103AC000090009000900F550946F0900F550956F41
:103AD00009000900F6CF98F0F7CF99F0F8CF9AF0E7
:103AE00091C0F6FF92C0F7FF93C0F8FF0001945316
:103AF00002E1955307E00900F550EE6E9407F8E2F5
:103B00009507F9D798C0F6FF99C0F7FF9AC0F8FF5C
:0C3B100000019607000E975BBFD7120063
:043B1C000450090246
:103B2000F3CF00F0F4CF01F00A02F3500126000EAB
:103B3000F420026E04500B02F3500226000EF42013
:103B4000036E04500C02F350032605500902F35093
:103B50000126F4500222000E032205500A02F350FF
:103B60000226F450032205500B02F35003260650A0
:103B70000902F3500226F450032206500A02F350C1
:0C3B8000032607500902F3500326120030
:043B8C000001A36B26
:103B9000B16AA292A192A082B1801200A19200010A
:103BA0009F07000EA05B0001A45102E10A0EA46F62
:103BB000A407A351000805E2A45102E18B7AA307F0
:103BC0000ED0100E0001E76E6019E8AE02D0E734A7
:103BD00002D0E750605D02E28B9A01D08B8A12001E
:103BE000036A026A016A006A200EE76ED890043602
:103BF00005360636073600360136023603360950DA
:103C0000005C0A5001580B5002580C50035809E34D
:103C10000950005E0A50015A0B50025A0C50035AC8
:083C2000042AE72EE4D712008C
:083C2800FF0EE350206EEF0EC9
:103C300001D0F30EE76EE72E1BEF1EF00C0E1F6E89
:103C4000E76AE72E21EF1EF01F2E20EF1EF0202E38
:063C500019EF1EF0120046
:0A3C5600FF0EE350206E480E01D06F
:103C60004C0EE76EE72EFED7E76AE72EFED7202E32
:063C7000F7D7000012006E
:0A3C76000002010058754C410001E6
:103C80000101010101010101010101010101010124
:053C900001010101002B
:0A3C960011EE00F021EE00F0F86AD4
:103CA0000F9C3FEC1DF079EC1EF00AEC1CF0FBD7EA
:023CB000120000
:0E3CB200FF0EE350206E1B0E00D001D0200E3E
:0E3CC000E76EE72EFED7202EFAD700D01200B6
:023CCE00FF0EE7
:103CD000E350E84E1200000000D000D000D0E82EE3
:043CE000FAD71200FD
:0C3CE40000EE00F00F0EEE6AEA62FDD761
:023CF0001200C0
:023CF2001200BE
:0B3CF4000000000000000000000000C5
:103F0000008040C020A060E0109050D030B070F031
:103F1000088848C828A868E8189858D838B878F8A1
:103F2000048444C424A464E4149454D434B474F4D1
:103F30000C8C4CCC2CAC6CEC1C9C5CDC3CBC7CFC41
:103F4000028242C222A262E2129252D232B272F2D1
:103F50000A8A4ACA2AAA6AEA1A9A5ADA3ABA7AFA41
:103F6000068646C626A666E6169656D636B676F671
:103F70000E8E4ECE2EAE6EEE1E9E5EDE3EBE7EFEE1
:103F8000018141C121A161E1119151D131B171F1A1
:103F9000098949C929A969E9199959D939B979F911
:103FA000058545C525A565E5159555D535B575F541
:103FB0000D8D4DCD2DAD6DED1D9D5DDD3DBD7DFDB1
:103FC000038343C323A363E3139353D333B373F341
:103FD0000B8B4BCB2BAB6BEB1B9B5BDB3BBB7BFBB1
:103FE000078747C727A767E7179757D737B777F7E1
:103FF0000F8F4FCF2FAF6FEF1F9F5FDF3FBF7FFF51
:020000040030CA
:0100000000FF
:0100010032CC
:010002000EEF
:010003001EDE
:01000500807A
:0100060001F8
:0100080003F4
:01000900C036
:01000A0003F2
:01000B00A054
:01000C0003F0
:01000D0040B2
:00000001FF
